:020000021000EC
:106000000040002081CE0100C9CE0100697001006E
:106010000000000000000000000000000000000080
:10602000000000000000000000000000CDCE0100D4
:106030000000000000000000CFCE0100D1CE010022
:10604000D3CE0100D3CE0100D3CE0100D3CE0100C8
:10605000D3CE01000000000035CA0100D3CE0100FC
:10606000D3CE0100D3CE0100ED960100D3CE0100C6
:10607000D3CE0100D3CE0100D3CE0100D3CE010098
:10608000D3CE010045B20100D3CE0100D3CE010032
:10609000E5B20100D3CE010011AB0100D3CE010067
:1060A000D3CE0100D3CE01000000000000000000AC
:1060B00000000000000000000000000000000000E0
:1060C000164B002B00D1144B9D46402292029A1A87
:1060D000924600218B460F461348144A121A0AF0C2
:1060E000FBFA0F4B002B00D098470E4B002B00D033
:1060F00098470020002104000D000D48002802D020
:106100000C4800E000BF0AF0A9FA2000290001F0C5
:106110009DF90AF08DFAC0460000080000400020FA
:10612000000000000000000038210020843400201E
:10613000000000000000000077DF704778DF704744
:106140007ADF70477CDF704760DF704768DF704739
:10615000A023EF220321DB05D20030B5A120995006
:106160008022C000D2051A500C2204250B4C1A5173
:106170000B4C1D510B4C1A51043C19518024E40066
:106180001C50E320C0001A5010381A5006481A500C
:10619000E222D2009950054A995030BD54070000C0
:1061A000240700002C0700000C0700001C0700005B
:1061B000A023EE210322DB05C9005A5005495A509D
:1061C000A1228021D200490599508021890599504A
:1061D0007047C04674070000002307B502200093F3
:1061E0000A211522154B05F03BFA002803D03D216A
:1061F000134A00F01BFF13480121134A05F090FADF
:10620000002803D040210E4A00F010FF0F48012162
:106210000F4A05F085FA002803D04121084A00F012
:1062200005FF0C4801210C4A05F07AFA002803D03A
:106230004221034A00F0FAFE07BDC0463821002083
:106240001C19020038340020D1730100F032002004
:10625000098601001C33002039740100164910B56D
:106260000420583106F032FC002803D04A21134A9A
:1062700000F0DCFEC122124992008858114B124CEA
:106280000340C020000403438B501049201C0A1C0B
:106290000F4B06F04FFC002803D04F21074A00F0B7
:1062A000C5FE207806F06AFC002803D05121034A7D
:1062B00000F0BCFE10BDC046B82800201C1902002A
:1062C00000E100E0FFFF00FF18330020400820003D
:1062D000A18501001FB5012202AC23781F49934319
:1062E0002370082028314F32002304F0E1FB0028FE
:1062F00003D060211A4A00F099FE002301A8037020
:10630000FFF722FF002803D06821154A00F08EFE17
:10631000144804F0E9FB002803D06C21104A00F077
:1063200085FE114804F0EAFB002803D06F210C4AD7
:1063300000F07CFE0420FFF7FFFE002803D072214E
:10634000074A00F073FE0120211CFFF7FFFE002822
:1063500003D07521024A00F069FE1FBD38290020D4
:106360001C19020099720100BD720100064A08B5AD
:1063700008201421783206F071FC002803D07C211B
:10638000024A00F053FE08BD382900201C19020003
:106390001FB505F099FC002803D08921194A00F0A7
:1063A00045FEA223A022DB00D205D2580123920889
:1063B00093436A466846137006F08AF8002803D0B3
:1063C0008F21104A00F032FE0A2000216844062284
:1063D0000AF082F91E2301ACE380113B2372063BD5
:1063E00063720933A372084B084801930123211CEF
:1063F000237106F0DBF8002803D09E21014A00F04B
:1064000015FE1FBD1C1902008172010021330020FE
:106410001FB5002301A8134905220370FFF792FE60
:10642000002803D0AF21104A00F000FE0020FFF743
:1064300085FE002803D0B2210B4A00F0F7FD0023AF
:1064400002A8436050330380503343802833C38015
:10645000FFF776FE002803D0BC21034A00F0E6FDDA
:1064600005B000BD261902001C19020030B51E4DF2
:1064700095B001AC00217C22281C0AF02DF90021E6
:10648000201C0C220AF028F9184B281C0193012328
:10649000211C2371EF336371A3712372E371637263
:1064A00000F004FA002803D0E521114A00F0BEFDF7
:1064B0004022002104A80AF00FF904A80D4904F0B5
:1064C00093FA112213AB1A704D2300226B4404A8D7
:1064D0001A7004F0BBF9002803D0F321044A00F03D
:1064E000A5FD15B030BDC04674330020C572010053
:1064F0001C1902002C19020030B59FB06B46DD1D3F
:10650000062302AC00213822201C2B700AF0E4F88C
:1065100002230021237010A8013B3822A370A3801E
:10652000A5600AF0D9F8201C10A904F0F5FC002899
:1065300004D00E21024AFF3100F078FD1FB030BDBB
:106540001C19020010B588B001AC201C00211C22CF
:106550000AF0C2F80C4B201C6360A023DB02A3608E
:1065600005232373043B2374084B6361084BA36129
:1065700004F076FD002804D02421064AFF3100F003
:1065800055FD08B010BDC04655D500000171010091
:10659000F17001001C19020008B501F0BDFF0028D0
:1065A00004D09521254A490000F040FD02F06CFE20
:1065B000002804D02E21214AFF3100F037FD04F0DD
:1065C00003F8002805D132211D48FF311B4A00F095
:1065D0002DFD362002F05CFC002804D09A21174AD9
:1065E000490000F023FD342002F0A6F8002804D072
:1065F0003821124AFF3100F019FD732002F0F8FC37
:10660000002804D09D210D4A490000F00FFD76209E
:1066100003F066FE002804D03E21084AFF3100F056
:1066200005FD01F015F9002804D04021034AFF318F
:1066300000F0FCFC682002F01FFB08BD1C190200E2
:1066400001100000FA2010B5C00006F0E3FA3A4C41
:10665000201C01F001FA002804D05221374AFF31F2
:1066600000F0E4FC01F010FA002804D0A921334A1C
:10667000490000F0DBFC201C01F0FAFB002804D0EC
:10668000AB212E4A490000F0D1FC01F009FC0028A2
:1066900004D05821294AFF3100F0C8FC201C01F029
:1066A000F1FC002804D05C21244AFF3100F0BEFC3C
:1066B00001F000FD002804D0AE21204A490000F07E
:1066C000B5FC201C01F0E4FD002804D0B0211B4AD9
:1066D000490000F0ABFC01F0F3FD002804D062217A
:1066E000164AFF3100F0A2FC201C01F0BBFA002882
:1066F00004D06621114AFF3100F098FC01F0CAFA7B
:10670000002804D0B3210D4A490000F08FFC00247A
:106710000B4B201C1C7001F0C5FFA021094B090385
:106720001868221C05F022F8A04204D07021034A08
:10673000FF3100F07BFC10BD743300201C190200F7
:1067400020330020F03200200122A02008B50D499E
:106750000D4BC0025A500D495850A120C000195885
:10676000114319501A600A4B0A491868002204F0B4
:10677000FDFF002804D07A21074AFF3100F056FCC3
:1067800008BDC0460C0500000000014004050000E3
:106790001C33002055D500001C19020000B5144B15
:1067A000A1B01A7E134B1B7E1343134A127E134370
:1067B000124A127E134303D1114B1B7E002B14D0BF
:1067C000104B0B211868002204F0D0FF002804D0E1
:1067D000A2210D4AFF3100F029FC0C4968460AF05D
:1067E0006FF80020694603F06FFE21B000BDC0467F
:1067F00028330020F033002050330020F8320020EE
:1068000018340020383400201C1902003619020008
:1068100000B50B4BA1B0186804F0F0FF002804D0BD
:10682000AE21084AFF3100F001FC684606490AF033
:1068300047F86946002003F047FE21B000BDC0467E
:10684000383400201C190200611902000021704731
:1068500000B50D4BA1B0984208D168460B490AF02B
:106860002FF86946002003F02FFE0AE00823021CDF
:106870009A4306D0064B984203D01421054A00F0F3
:10688000D5FB21B000BDC04604300000CB1902008A
:1068900001340000E5190200A0DF7047A2DF704755
:1068A000A4DF7047A6DF704763DF7047F0B50B6861
:1068B000041C036001235B4203810A79037782721F
:1068C000FF2283774277C3774879621CD0773132D1
:1068D000137053709370D37088799375D375137652
:1068E00053761071C879163210719375D37513767B
:1068F0005376487A163210719375D37513765376A2
:10690000231C10260A7AA5B078331A70DA4914A825
:10691000321C09F0D8FEA11D14A8FFF7C5FF0028FE
:1069200000D0A7E1A37912A98B708923221D5B01F6
:1069300001300B80FFF7B0FF031E00D09AE1A57A6B
:10694000002D07D0311C01330FAA194301331170F8
:10695000517093701DAE00211C22301C09F0BCFE4A
:10696000012102222940681E85410901114331702D
:106970006D420FA92940716100210EA801811023E9
:1069800001200EAD184328720320A8720238184364
:106990002873012003436B73AA7318AD1232281CAD
:1069A00009F09AFEA37913AFBB70B44B311C3B8046
:1069B00010AB6B6004232B810423AB81231C1C339D
:1069C0002B610093A088103B2A1C18970193FFF7B6
:1069D00065FF002800D04DE1A3790822BB70A84BC9
:1069E00068813B8011AB6B6001232B810123AB815C
:1069F000231C20332B613378311C1343043A134397
:106A00003370231CA08814332A1C18970293FFF7B5
:106A100045FF002800D02DE1A3790822BB70994BD7
:106A20002F603B8010AB6B6004232B810423AB8170
:106A3000231C32332B610393337868819343043AE8
:106A400093433370231CA0882233311C2A1C0493E7
:106A5000FFF724FF002800D00CE1A3790822BB70C7
:106A6000894B2F603B8011AB6B6001232B8101238D
:106A7000AB81231C36332B61337868811343043A8E
:106A800013433370231CA0882A33311C2A1C05931E
:106A9000FFF704FF002800D0ECE0A3790822BB70C8
:106AA0007A4B2F603B8010AB6B6004232B81042357
:106AB000AB81231C48332B61069333786881934361
:106AC000043A93433370231CA0883833311C2A1CAA
:106AD0000793FFF7E3FE002800D0CBE0A37908225C
:106AE000BB706B4B2F603B8011AB6B6001232B8124
:106AF0000123AB81231C4C332B6133786881134312
:106B0000043A13433370231CA0884033311C2A1CE1
:106B10000893FFF7C3FE002800D0ABE0A37908225A
:106B2000BB705C4B2F603B8010AB6B6004232B81F0
:106B30000423AB81231C5E332B6109933378688176
:106B40009343043A93433370231CA0884E33311C83
:106B50002A1C0A93FFF7A2FE002800D08AE0A3793E
:106B60000822BB704C4B2F603B8011AB6B60012344
:106B70002B810123AB81231C62332B613378688125
:106B80001343043A13433370231CA0885633311C3B
:106B90002A1C0B93FFF782FE00286BD1A3790822F1
:106BA000BB703E4B2F603B8010AB6B6004232B818E
:106BB0000423AB81231C74332B610C9333786881DD
:106BC0009343043A93433370231CA0886433311CED
:106BD0002A1C0D93FFF762FE00284BD1A3790822EF
:106BE000BB708A235B013B8011AB6B6001232B815F
:106BF0000123AB81231C2F60271C78332B61337852
:106C000068811343043A134333706C37A088311CF6
:106C10002A1C3B1CFFF742FE00282BD1204B019A77
:106C200002215A60029A18709A60009A9F63DA6093
:106C300001221A74049A5A61059A9A61039ADA61D8
:106C40005A1CD177079A01315A62089A9A62069AB9
:106C5000DA621A1C303211700D9A01315A630C9AA3
:106C6000DA631A1C403211700A9A5A640B9A9A64B9
:106C7000099ADA6425B0F0BD6A1A020033110000E7
:106C800034110000351100003611000037110000EA
:106C900038110000411100004211000039110000BC
:106CA0000C2B0020F0B5041C0D1C002089B02049DD
:106CB0000601775C01919F4234D102ABDA80002358
:106CC000934209DAEF5C0199BC460701CF1961468E
:106CD000FF68F9540133F3E7019B99194F6802AB40
:106CE00000219A1D38882B1CFFF7DAFD011E1CD1EC
:106CF0002689104B08309E4217D0A37A002B14D05F
:106D000004AC201C102209F0E7FC3B88301C2380D7
:106D10000123A37002AB0633211CA360E560FFF7DB
:106D2000C1FD02E001300528C1D109B0F0BDC04667
:106D30000C2B0020FFFF000030B585B06B46151C02
:106D400007330E22197001216A44041C11800020AF
:106D5000042D26D8281C07F011FA03080E1B150075
:106D60001878611CC877A08A18E0211C1878363181
:106D70000870608D12E0211C18784C3108700234C4
:106D8000E08F0BE0211C187862310870563404E063
:106D9000211C1878783108706C3420880021FFF7A6
:106DA0007FFD05B030BD73B50B88112B06D0502B7D
:106DB00008D0102B00D079E08B8801E001235B42E2
:106DC000038173E0CA88838A0D1C041C8E1D9A42BD
:106DD00010D1338B012B0DD10368002B0AD06B46E9
:106DE000002201911A70B17EFFF7A6FF201C6946B0
:106DF00023689847EA88638D9A4210D1328B012A22
:106E00000DD12368002B0AD06B4601951A70B17E14
:106E1000201CFFF791FF201C694623689847A31C9C
:106E2000EA88DB8F9A4211D1338B012B0ED1236874
:106E3000002B0BD06B46022201951A70B17E201CEC
:106E4000FFF77AFF201C694623689847231C5633B6
:106E5000EA881B889A4211D1338B012B0ED123680B
:106E6000002B0BD06B46042201951A70B17E201CBA
:106E7000FFF762FF201C694623689847231C6C3388
:106E8000EA881B889A4211D1338B012B0ED12368DB
:106E9000002B0BD06B46032201951A70B17E201C8B
:106EA000FFF74AFF2368201C6946984773BD73DFCC
:106EB000704740DF7047000000B5A1B0FFF748F908
:106EC00068464B4909F0FCFC6946002003F0FCFAD7
:106ED000FFF76EF96846474909F0F2FC6946002061
:106EE00003F0F2FAFFF778F96846434909F0E8FC45
:106EF0006946002003F0E8FAFFF726FC68463F49A0
:106F000009F0DEFC6946002003F0DEFAFFF7A6F97F
:106F100068463B4909F0D4FC6946002003F0D4FAE6
:106F2000FFF7D8F96846374909F0CAFC69460020DE
:106F300003F0CAFAFFF71AFA6846334909F0C0FCB1
:106F40006946002003F0C0FAFFF722FA68462F498D
:106F500009F0B6FC6946002003F0B6FAFFF758FACC
:106F600068462B4909F0ACFC6946002003F0ACFAF6
:106F7000FFF77CFA6846274909F0A2FC6946002021
:106F800003F0A2FAFFF7B8FA6846234909F098FC23
:106F90006946002003F098FAFFF7D4FA68461F49C3
:106FA00009F08EFC6946002003F08EFAFFF7F4FA30
:106FB00068461B4909F084FC6946002003F084FA06
:106FC000FFF740FB6846174909F07AFC6946002044
:106FD00003F07AFAA0228021134BD2054905D15043
:106FE00080218905D150002001F00EFB21B000BDA9
:106FF0007A1A02008B1A0200961A0200A31A0200E3
:10700000B71A0200C41A0200D41A0200E91A0200D8
:10701000FA1A0200141B0200231B0200351B020097
:10702000471B02005A1B02000C05000030B5051C6E
:10703000141CA1B00B1C2A1C6846094909F01EFC4F
:107040006946002003F040FA221C6846054909F011
:1070500015FC6946002003F037FA21B030BDC04668
:107060006D1B0200941B020000B5A1B068460949DF
:1070700009F026FC6946002003F026FA064805F0D0
:10708000C9FDBFF34F8F054A054BDA60BFF34F8F41
:10709000FEE7C046981B0200881300000400FA05B2
:1070A00000ED00E0031C00B50A1CA1B0191C0B4840
:1070B000FFF7BCFF68460A4909F002FC6946002058
:1070C00003F002FA074805F0A5FDBFF34F8F064A0B
:1070D000064BDA60BFF34F8FFEE7C046EFBEADDE72
:1070E000C21B0200881300000400FA0500ED00E056
:1070F00008B55021014AFFF799FF08BDFB1B0200AC
:1071000010B50478A0B0002C07D10549684609F0F5
:10711000D7FB201C694603F0D7F920B010BDC0464C
:10712000051C020010B5A6B001ACFFF7E5F9201C64
:107130000021142209F0D0FAA023201C2382FFF79B
:10714000B6FE041E04D07621094AFFF76FFF0CE05B
:10715000084906A809F0B4FB06A9201C03F0B4F9FD
:107160001D200A21FF2202F0D7F826B010BDC0462C
:10717000FB1B0200461C020010B5041C0088A0B0D6
:10718000103809286BD806F0F9FF0517626A6A6A99
:107190006A6A6A593349684609F092FB69460020D9
:1071A00003F092F91D2002F09FF81D2002F086F8EE
:1071B000A2882D4B1A8052E0FFF72AFB01232A4CAC
:1071C0005B422A496846238009F07AFB6946002021
:1071D00003F07AF91D2002F087F82288244B1A81E7
:1071E00000F008FD002803D0A021224AFFF71EFF6F
:1071F00000F010FF002803D0A4211E4AFFF716FF5D
:1072000000F0FEFD002803D0A8211A4AFFF70EFF68
:1072100001F00EF9002803D0AC21164AFFF706FF53
:1072200000F0FEFF002803D0B021124AFFF7FEFE57
:10723000002001F037FAFFF775FF10E0A479002C69
:107240000DD168460C4909F03BFB201C04E0684660
:107250000A4909F035FB0020694603F035F920B0F2
:1072600010BDC046571C020000200020701C020008
:1072700074330020FB1B02008C1C0200B11C0200B6
:1072800008B5002A04D0101CF621024AFFF7CEFEF2
:10729000002008BDFB1B020010B5041C05F0DAF944
:1072A000201CFFF769FF201C03F00AFF0248211C85
:1072B000FFF779FD10BDC0467433002008B504F017
:1072C0008DFC08BD10B50C1CA0B03849684609F00B
:1072D000F7FA6946002003F0F7F8FFF799FA2078EB
:1072E000042859D8324B06F049FF031344233300D6
:1072F0000133DA7F2F49684609F0C0FA6946002059
:1073000003F0E2F800F0C0FB9921002844D03FE0F0
:1073100036331A782849684609F0B0FA69460020E1
:1073200003F0D2F800F0BCFD3A21002834D01EE072
:1073300078331A782149684609F0A0FA6946002096
:1073400003F0C2F800F0A6FCA021002824D01FE022
:1073500062331A781A49684609F090FA69460020A3
:1073600003F0B2F800F0ACFF002815D04821FF313F
:107370000FE04C331A781349684609F07FFA6946E2
:10738000002003F0A1F800F095FE002804D0A7210A
:1073900049000D4AFFF74AFE002001F083F9002062
:1073A0000A4A011C05F070FC20B010BD661D0200E9
:1073B00074330020771D0200A21D0200CB1D0200C5
:1073C000F51D0200231E0200FB1B02009D67010049
:1073D00008B500F0CDFB002804D0B621154A4900BD
:1073E000FFF724FE00F0D4FD002804D07221114ADA
:1073F000FF31FFF71BFE00F0C1FC002804D0BB21C9
:107400000C4A4900FFF712FE00F0C8FE002804D025
:107410007C21084AFF31FFF709FE00F0C7FF002872
:1074200004D0C021034A4900FFF700FE002001F00C
:1074300039F908BDFB1B0200C0230249024ADB00E8
:10744000D15070473546526E0000014008B5FFF735
:1074500033FDFFF767FE05F0ADFCFFF72AFD0028BE
:10746000F9D09621024AFF31FFF7E0FDF3E7C0466D
:10747000FB1B0200F0B5A5B00F1C0390111C181CDB
:107480001C1C151C06F084FE0290381C08F0A0FE9F
:10749000021C0B1C0020704907F0D6FB061C0F1CB9
:1074A000281C08F095FE321C3B1C08F00BF807F076
:1074B0004FF80090201C08F08BFE3B1C321C08F09B
:1074C00001F807F045F8039B041C002B03D1009B37
:1074D00004011B010093029808F07AFE00225F4B22
:1074E000061C0F1C06F0ECFF051E2ED0009808F0BD
:1074F0006FFE5B4A041C0D1C301C391C594B05F0F7
:10750000E9FC594A00900191584B201C291C07F0B6
:10751000D9FF574A061C0F1C564B201C291C07F08C
:10752000D1FF009A019B07F0CDFF021C0B1C301C01
:10753000391C08F061FA07F00BF82A9B4E491860D5
:1075400004A809F0BDF9002027E0301C391C4B4A83
:107550004B4B06F0B5FF0290002822D0009808F0AF
:1075600037FE484A484B07F0ADFF061C201C0F1C95
:1075700008F02EFE3E4A454B07F0A4FF0B1C021CF0
:10758000391C301C08F038FA06F0E2FF2A9B40490B
:10759000186004A809F094F9281C04A902F094FFCB
:1075A00056E0301C391C3B4A3B4B06F089FF051E58
:1075B0001FD0009808F00CFE384A394B07F082FFC4
:1075C000061C201C0F1C08F003FE364A364B07F041
:1075D00079FF021C0B1C301C391C08F00DFA06F058
:1075E000B7FF2A9B3149186004A809F069F902988D
:1075F000D3E7391C301C2E4A2E4B06F061FF071EC4
:107600001CD0009808F0E4FD2B4A2C4B07F05AFFE1
:10761000061C201C0F1C08F0DBFD294A294B07F033
:1076200051FF0B1C021C391C301C08F0E5F906F058
:107630008FFF2A9B2449186004A8ABE7234904A8BC
:1076400009F03EF9381C04A902F03EFF2A9B1F6096
:10765000012025B0F0BDC046002079400000E03F89
:10766000666666666666F63FC58F31772D219F3F59
:107670005839B4C876BEAF3F4D1E020085EB51B8F5
:107680001E85E33FC7BAB88D06F0963F76BE9F3F92
:10769000581E02009A9999999999E93F2D431CEB3C
:1076A000E2368A3F4BC8073D9B558F3F641E020060
:1076B000CDCCCCCCCCCCF43FB2632310AFEB573F56
:1076C000D2FBC6D79E59523F6F1E02007A1E02009F
:1076D00008B5044B1A78044B1A7002F075FF0120AC
:1076E00008BDC046042000201933002037B5064DE0
:1076F000069CAA4201D0AB4202D10020206002E0E9
:107700000094FFF7B7FE3EBDFFFF000037B56B46A4
:107710000C1CD91D0F23012218400F4B0F4D9B78D5
:10772000184308702878131C4000C0B202F086FF8E
:10773000002804D1FF220A4B00201A700AE001231E
:107740002878211C40001843C0B21A1C02F076FFB2
:107750000028EFD03EBDC046042000201933002091
:107760001034002008B5034B011CD878FFF7CEFF7A
:1077700008BDC046042000200F2210B51040104A5A
:10778000A2B0927801AB10430E4A1870107859706D
:107790004000191CC0B20222012302F04FFF041E58
:1077A0000AD1FF22084B094902A81A7009F088F88B
:1077B000201C02A902F088FE201C22B010BDC04689
:1077C000042000201933002010340020851E020000
:1077D00008B5034B03211878FFF7CEFF08BDC0465C
:1077E0005C2B0020F7B56B460F4DDC1D071C0E1CF3
:1077F0002879211CFFF78AFF002814D02378102253
:10780000002F01D0134300E0934303222370237819
:10781000164093431E430520267005F0FBF9287996
:107820002178FFF7A9FFFEBD0420002008B56523DD
:10783000012908D00E23002905D0022902D1C9232D
:107840005B0000E000231360FFF7CCFF08BD0000E1
:1078500070B50024A0B02749684609F031F86946A0
:10786000002002F031FE244D2C70FFF731FF05207F
:1078700005F0D0F92148FFF775FF061EA64209D191
:107880001F49684609F01CF8301C694602F01CFECE
:107890001C482DE0052005F0BDF9FFF799FF061EF5
:1078A00009D11949684609F00BF8301C694602F005
:1078B0000BFE16481CE0052005F0ACF92878144AA8
:1078C000431E9841134BC0B259780832FFF7AEFF00
:1078D000051E09D11049684608F0F2FF281C6946C8
:1078E00002F0F2FD0D4803E0052005F093F9201C9D
:1078F00020B070BD961E02003F3400203D340020B1
:10790000AC1E020022200000B91E0200232000004D
:10791000042000205C2B0020C71E02002420000051
:1079200073B56B460D1CD91D0F230122114E184053
:10793000B378184308703078131C4000C0B202F0CE
:107940007DFE0D4C002803D1FF23002023700FE0A3
:1079500000231420237005F05DF901233078291CE1
:1079600040001843C0B2022202F068FE0028EBD0AB
:1079700076BDC046042000201034002038B5031C1A
:10798000064C0D1C607B191CFFF7CAFF002803D0B2
:10799000A07B291CFFF7C4FF38BDC046042000208F
:1079A000F0B50024A5B0164D164E0390164904A854
:1079B0002C70347008F084FF04A9201C02F084FDB0
:1079C000301C291CFFF7DAFF071EA74209D10F4917
:1079D00004A808F075FF381C04A902F075FD0C48D6
:1079E0000CE00C4B0399187832782B7800910A49F7
:1079F0008968FFF77BFE094B9870201C25B0F0BD0D
:107A00003C3400203E340020D71E0200F81E020045
:107A1000252000003F340020042000205C2B0020A3
:107A200073B5002401AE051C311C03207470347042
:107A300000F096FE0F22717806480B013178114054
:107A40001943298009B208F0EDFE052005F0E2F89F
:107A5000201C76BD071F020010B5A0B0041C084909
:107A6000684608F02DFF6946002002F02DFD002039
:107A70000021044B186159611C60187620B010BDBC
:107A8000181F0200F033002030B5A1B01B49684632
:107A900008F016FF0020694602F016FD184C00227F
:107AA0002368251C0133D87F0023226163610123F1
:107AB00003402376400903280FD806F05FFB020439
:107AC0000A0C104800E01048FEF7C0FEA860E9600C
:107AD00009E00E48F8E70E48F6E7FA20C000FEF786
:107AE000B5FEA060E16068460A4908F0E9FE694613
:107AF000002002F0E9FC002021B030BD271F020069
:107B0000F03300208096980040420F00A0860100CC
:107B100010270000561F020010B5A2B001A802F005
:107B200019FC041C02A8002C07D00E4908F0C8FE5E
:107B300002A9002002F0C8FC10E0019A0A4908F0EE
:107B40009DFE02A9201C02F0BFFC084B01A9186889
:107B50000422231CFFF7A6F8FEF77AFE201C22B0B1
:107B600010BDC046741F02009E1F0200F0330020AB
:107B700030B51D4BA1B01A7E002A01D100242FE0A0
:107B800001201C695D69002100196941DA681861EA
:107B900059618A4207D802D19A68824203D80020EC
:107BA0000021186159611A69012AE7D15A69002A2E
:107BB000E4D10E490C78002C0DD1FFF7ADFF051E66
:107BC0000ED00B49684608F07BFE201C694602F087
:107BD0007BFC2C1C04E000200021141C186159615E
:107BE000201C21B030BDC046F033002020330020DF
:107BF000AF1F020070B5184EA0B03068F02100220F
:107C0000FFF79AF8051E09D01449684608F058FE97
:107C10000020694602F058FC281C1BE0FFF734FFE7
:107C2000041E0ED16A46FF23694613705370937089
:107C3000D37030680422231CFFF734F8FEF708FEE7
:107C400007E00749684608F03BFE281C694602F039
:107C50003BFC201C20B070BDF0330020CF1F020081
:107C6000FE1F020010B5A0B0041C0849684608F0C9
:107C700027FE6946002002F027FC00200021044B6B
:107C8000186159611C60187620B010BD1E200200DA
:107C90001834002030B5A1B01B49684608F010FE2A
:107CA0000020694602F010FC184C00222368251CB5
:107CB000783318780023226163610123034023761F
:107CC000400903280FD806F059FA02040A0C10489C
:107CD00000E01048FEF7BAFDA860E96009E00E4830
:107CE000F8E70E48F6E7FA20C000FEF7AFFDA06007
:107CF000E16068460A4908F0E3FD6946002002F0A9
:107D0000E3FB002021B030BD2C20020018340020FD
:107D10008096980040420F00A086010010270000C6
:107D20005120020010B5A2B001A8FFF739FE041CD3
:107D300002A8002C07D00E4908F0C2FD02A90020BD
:107D400002F0C2FB10E0019A0A4908F097FD02A96F
:107D5000201C02F0B9FB084B01A918680422032378
:107D6000FEF7A0FFFEF774FD201C22B010BDC04638
:107D70006E2002009D2002001834002030B51D4BFB
:107D8000A1B01A7E002A01D100242FE001201C6935
:107D90005D69002100196941DA68186159618A42F8
:107DA00007D802D19A68824203D8002000211861C6
:107DB00059611A69012AE7D15A69002AE4D10E49AA
:107DC0000C78002C0DD1FFF7ADFF051E0ED00B492E
:107DD000684608F075FD201C694602F075FB2C1CF6
:107DE00004E000200021141C18615961201C21B0FE
:107DF00030BDC0461834002020330020AE200200E1
:107E000070B5184EA0B03068F0210322FEF794FF41
:107E1000051E09D01449684608F052FD0020694645
:107E200002F052FB281C1BE0FFF734FF041E0ED1AA
:107E30006A46FF236946137053709370D37030689D
:107E40000422FC3BFEF72EFFFEF702FD07E0074988
:107E5000684608F035FD281C694602F035FB201CF9
:107E600020B070BD18340020CD200200FB2002009D
:107E700010B5A0B0041C0849684608F021FD694609
:107E8000002002F021FB00200021044B1861596101
:107E90001C60187620B010BD1A2102002833002083
:107EA00030B5A1B01D49684608F00AFD00206946BA
:107EB00002F00AFB1A4C00222368251C363318787E
:107EC00000232261636101230340237640090428D3
:107ED00013D806F053F903050B0D0F00114800E00D
:107EE0001148FEF7B3FCA860E9600CE00F48F8E722
:107EF0000F48F6E7FA208000F3E7FA208000FEF74B
:107F0000A5FCA060E16068460A4908F0D9FC694612
:107F1000002002F0D9FA002021B030BD2721020054
:107F2000283300208096980040420F00A086010070
:107F3000102700004A21020010B5A2B001A802F0EB
:107F400025FA041C02A8002C07D00E4908F0B8FC42
:107F500002A9002002F0B8FA10E0019A0A4908F0DC
:107F60008DFC02A9201C02F0AFFA084B01A9186889
:107F700004220123FEF796FEFEF76AFC201C22B0C5
:107F800010BDC046662102008B210200283300206C
:107F900030B51D4BA1B01A7E002A01D100242FE07C
:107FA00001201C695D69002100196941DA681861C6
:107FB00059618A4207D802D19A68824203D80020C8
:107FC0000021186159611A69012AE7D15A69002A0A
:107FD000E4D10E490C78002C0DD1FFF7ADFF051E42
:107FE0000ED00B49684608F06BFC201C694602F075
:107FF0006BFA2C1C04E000200021141C186159614C
:10800000201C21B030BDC046283300202033002082
:108010009A21020070B5184EA0B03068F0210122FC
:10802000FEF78AFE051E09D01449684608F048FC90
:108030000020694602F048FA281C1BE0FFF730FFD9
:10804000041E0ED16A46FF23694613705370937065
:10805000D37030680422FE3BFEF724FEFEF7F8FBE7
:1080600007E00749684608F02BFC281C694602F027
:108070002BFA201C20B070BD28330020B82102004C
:10808000E521020010B5A0B0041C0849684608F0BC
:1080900017FC6946002002F017FA00200021044B6B
:1080A000186159611C60187620B010BD03220200CF
:1080B0005033002030B5A1B01B49684608F000FCE1
:1080C0000020694602F000FA184C00222368251CA3
:1080D0004C33187800232261636101230340237627
:1080E000400903280FD806F049F802040A0C10488A
:1080F00000E01048FEF7AAFBA860E96009E00E481E
:10810000F8E70E48F6E7FA20C000FEF79FFBA060F4
:10811000E16068460A4908F0D3FB6946002002F096
:10812000D3F9002021B030BD1122020050330020CD
:108130008096980040420F00A086010010270000A2
:108140003422020010B5A2B001A802F03BF9041CD1
:1081500002A8002C07D00E4908F0B2FB02A90020AB
:1081600002F0B2F910E0019A0A4908F087FB02A96F
:10817000201C02F0A9F9084B01A918680422022367
:10818000FEF790FDFEF764FB201C22B010BDC04638
:1081900051220200772202005033002030B51D4BDF
:1081A000A1B01A7E002A01D100242FE001201C6911
:1081B0005D69002100196941DA68186159618A42D4
:1081C00007D802D19A68824203D8002000211861A2
:1081D00059611A69012AE7D15A69002AE4D10E4986
:1081E0000C78002C0DD1FFF7ADFF051E0ED00B490A
:1081F000684608F065FB201C694602F065F92C1CF6
:1082000004E000200021141C18615961201C21B0D9
:1082100030BDC046503300202033002086220200AB
:1082200070B5184EA0B03068F0210222FEF784FD30
:10823000051E09D01449684608F042FB0020694633
:1082400002F042F9281C1BE0FFF734FF041E0ED198
:108250006A46FF236946137053709370D370306879
:108260000422FD3BFEF71EFDFEF7F2FA07E0074988
:10827000684608F025FB281C694602F025F9201CF9
:1082800020B070BD50330020A5220200D32202008E
:1082900010B5A0B0041C0849684608F011FB6946F7
:1082A000002002F011F900200021044B18615961EF
:1082B0001C60187620B010BDF2220200F8320020B7
:1082C00030B5A1B01B49684608F0FAFA00206946AB
:1082D00002F0FAF8184C00222368251C6233187843
:1082E00000232261636101230340237640090328B0
:1082F0000FD805F043FF02040A0C104800E01048B4
:10830000FEF7A4FAA860E96009E00E48F8E70E4815
:10831000F6E7FA20C000FEF799FAA060E16068462F
:108320000A4908F0CDFA6946002002F0CDF8002095
:1083300021B030BD04230200F8320020809698005E
:1083400040420F00A0860100102700002C230200ED
:1083500030B5A3B06B469D1D281CFFF761FB041EC2
:1083600009D00F4902A808F0ABFA002002A902F0D8
:10837000ABF8012012E02A880A4902A808F07EFA28
:1083800002A9201C02F0A0F80422074B291C18683F
:10839000131CFEF787FCFEF75BFA201C23B030BDF0
:1083A0004D23020071230200F832002030B51D4B2E
:1083B000A1B01A7E002A01D100242FE001201C69FF
:1083C0005D69002100196941DA68186159618A42C2
:1083D00007D802D19A68824203D800200021186190
:1083E00059611A69012AE7D15A69002AE4D10E4974
:1083F0000C78002C0DD1FFF7ABFF051E0ED00B49FA
:10840000684608F05DFA201C694602F05DF82C1CF5
:1084100004E000200021141C18615961201C21B0C7
:1084200030BDC046F83200202033002085230200F2
:1084300070B5184EA0B03068F0210422FEF77CFC25
:10844000051E09D01449684608F03AFA002069462A
:1084500002F03AF8281C1BE0FFF732FF041E0ED191
:108460006A46FF23137053709370D37004226946D9
:10847000131C3068FEF716FCFEF7EAF907E007491F
:10848000684608F01DFA281C694602F01DF8201CF9
:1084900020B070BDF8320020A8230200DA230200C9
:1084A00000B5A1B068460A4908F00AFA69460020FA
:1084B00002F00AF80122074B03211A700022064B32
:1084C0001D201A70803200F043FF21B000BDC0466D
:1084D000FD230200602B00207033002000B5A1B006
:1084E00068460A4908F0ECF96946002001F0ECFF03
:1084F0000122074B03215A700022064B1D201A70DF
:10850000803200F025FF21B000BDC04615240200D6
:10851000602B00207033002000200122024B1870D5
:10852000024B1A707047C046703300204833002059
:1085300010B5041CA0B0002802D0FFF7B1FF0CE07A
:108540000749684608F0BCF9201C694601F0BCFFE9
:10855000044B1D201C7000F0C7FE20B010BDC046AB
:1085600029240200602B002010B5041CA0B00028B4
:1085700002D0FFF7B3FF0CE00749684608F0A0F906
:10858000201C694601F0A0FF044B1D205C7000F028
:10859000ABFE20B010BDC04642240200602B00207C
:1085A00070B580252D01A0B0061C0C1C284202D0FD
:1085B0000020FFF7BDFF2C4201D0FFF771FF80259F
:1085C000AD032E4202D00020FFF7CEFF2C4201D097
:1085D000FFF784FF630610D50949684608F070F973
:1085E0000020694601F070FF684600F0A9FC0028F1
:1085F00003D04A21034AFEF719FD20B070BDC046E2
:108600005724020070240200012070B5A026A22584
:10861000011CF605ED001E4C72592378D20AA2B057
:108620009143994202D05840FFF782FF0120011C7C
:1086300072596378520D9143994202D05840FFF726
:1086400093FF144B1D78002D20D1134902A808F088
:1086500037F9281C02A901AD01F036FF281C00F0F3
:1086600063FC00280ED121786A780123002900D10B
:10867000637802A8094908F001F902A9002001F075
:1086800023FF03E06421064AFEF7D0FC22B070BD50
:10869000602B002020330020B2240200CD240200F1
:1086A00070240200002809D08021A123A022DB0031
:1086B000D205C905D1500122014B1A707047C0463E
:1086C0004833002008B5031C0A1C06490878191C09
:1086D000012301F0B3FF002801D0002000E0024890
:1086E00008BDC046622B00200130000010B5104BC1
:1086F000041C187801230A1C1843211C01F09EFF5A
:10870000002812D00423C046C046C046C046C0461A
:10871000C046C046C046C046C046C046C046C04629
:10872000C046013B181EEED100E0024810BDC04615
:10873000622B00200230000007B5074B4000187084
:108740006B46D81D822301210370FFF7BBFF002871
:1087500000D002480EBDC046622B0020033000004E
:1087600013B50B2818D86A46031CD01D1F225B00C6
:10877000524213439E320C1C134001210370FFF739
:10878000A1FF002801D0054807E0201C0221FFF7C7
:10879000ADFF0028F7D100E0014816BD053000000C
:1087A00004300000F7B56B46141C0122184F0D1C55
:1087B000D91D08703878131C4000C0B201F03EFF8C
:1087C000061E01D115210CE001233878E2B24000E9
:1087D0001843C0B2291C01F031FF0423061E04D146
:1087E0001B210C4AFEF722FC10E0C046C046C046E2
:1087F000C046C046C046C046C046C046C046C04649
:10880000C046C046C046013B002BEED1301CFEBD29
:1088100040340020F724020008B50122FFF7C2FF10
:1088200008BD002313B501AC211C02222370637024
:10883000FFF7B8FF207863780002181800B216BD61
:1088400098B5131C6C460833DB08DB00E31A00AF55
:1088500018709D460020904204DA0130441E0C5DE1
:108860001C54F8E7094901320878D2B24000191CBB
:10887000C0B2012301F0E2FE041E03D15F21044ACD
:10888000FEF7D4FBBD46201C98BDC04640340020F6
:10889000F724020007B56B46D9710733191C012272
:1088A000FFF7CEFF0EBDF0B585B0019302ABDD1D25
:1088B00000230C1C291C061C171C2B70FFF7ACFF97
:1088C000002810D00121B940E41B019B013401397B
:1088D000A340A1402F78DCB28F4321403943301CA4
:1088E0002970FFF7D7FF05B0F0BD0322504308B54C
:1088F00025300B1CC0B206210432FFF7D4FF08BD9F
:1089000008B50B1C032148432730C0B20422FFF7EF
:10891000CAFF08BD08B5131C0122FFF7C4FF08BD3C
:1089200007B50A0A01AB1A7059700222191CFFF729
:1089300087FF07BD08B56B2007210122FFF7EAFF7B
:1089400008BD08B5021C03216B20FFF7E3FF08BD3B
:1089500008B50221031C03226B20FFF7A4FF08BD0A
:1089600008B5021C05216C20FFF7D4FF08BD08B52F
:10897000021C04216C20FFF7CDFF08BD08B5021CC6
:1089800003216C20FFF7C6FF08BD08B5021C0221B9
:108990006C20FFF7BFFF08BD08B5021C01216C2049
:1089A000FFF7B8FF08BD08B5021C00216C20FFF7D7
:1089B000B1FF08BD08B5011C1920FFF76BFF08BD0A
:1089C00008B50221031C03221A20FFF76CFF08BD23
:1089D00008B50221031C03221D20FFF764FF08BD18
:1089E00008B50421031C02221B20FFF75CFF08BD11
:1089F00008B50421031C02221C20FFF754FF08BD08
:108A000008B5011C1320FFF78BFF08BD08B5011C3A
:108A10001520FFF785FF08BD08B5011C1720FFF7DB
:108A20007FFF08BD70B50D1C141C061CFFF7E8FF86
:108A3000281CFFF7EBFF201CFFF7EEFF024B5E80C8
:108A40009D80DC8070BDC046642B002010B5041CE6
:108A50007720FFF7E6FE0123011C19406300002C7C
:108A600002DA044A1A43131C0B4319B27720FFF7AA
:108A700057FF10BD0080FFFF10B5041C7A20FFF7E0
:108A8000D0FE0123011C19406300002C02DA044AC5
:108A90001A43131C0B4319B27A20FFF741FF10BD94
:108AA0000080FFFF10B5041C7D20FFF7BAFE0123F4
:108AB000011C19406300002C02DA044A1A43131CFB
:108AC0000B4319B27D20FFF72BFF10BD0080FFFF85
:108AD00070B50D1C141C061CFFF7B8FF281CFFF70F
:108AE000CBFF201CFFF7DEFF024B1E815D819C81C6
:108AF00070BDC046642B002010B5041C0621221C4A
:108B00002320FFF707FF221C05212320FFF702FF88
:108B10000421221C2320FFF7FDFE10BD08B5021C16
:108B200003212320FFF7F6FE08BD08B54A1E914138
:108B3000031CCAB26720191CFFF7ECFE08BD08B57C
:108B40000421031C05223420FFF7ADFE08BD000000
:108B500008B5012207212520FFF7DCFE00200C21AB
:108B6000FFF7C3FE03212620FFF794FE0122072111
:108B70002720FFF7CFFE00200621FFF7C1FE0120CE
:108B80000C21FFF7B2FE0A212920FFF783FE012006
:108B9000011CFFF7B5FE012207212A20FFF7BAFECC
:108BA00011216420FFF776FE064B1878FFF7C7FF08
:108BB00000200121FFF7B9FF0120011CFFF7B5FFDD
:108BC00008BDC046642B002008B5021C00213820D7
:108BD000FFF7A0FE08BD08B5021C06216A20FFF7BA
:108BE00099FE08BD08B5021C02216A20FFF792FE1B
:108BF00008BD000010B5094CE37BA07B1843237C23
:108C00001843FFF7E1FF0120FFF7ECFFE37BA07BB8
:108C10001843237C1843FFF7DEFF10BD642B0020B0
:108C200038B5051E01D000F075F8114B1878FFF724
:108C3000C1FE104C2078FFF782FF0020FFF7C4FF31
:108C40000020FFF7C8FF0120FFF7CCFFE5730124E8
:108C50006C40201CFFF784FE201CFFF788FE201CC0
:108C6000FFF78CFE281CFFF759FFFFF7C3FF38BD45
:108C700017200020642B0020234B10B51870FFF73D
:108C800059FE142003F0C6FF0120FFF761FE01200A
:108C9000FFF7A6FE0120FFF7ABFE1C4C0823E05EA9
:108CA0000A23E15E0C23E25EFFF712FF0423E15E7C
:108CB0000623E25E0223E05EFFF7B4FE0320FFF727
:108CC0007FFE0320FFF784FE114B1878FFF772FE3A
:108CD000FFF73EFF0120FFF734FE0020FFF7A0FF63
:108CE000002000F02BF80020FFF76EFF0020FFF7B8
:108CF00072FF0120FFF776FFFFF77CFF06210122BC
:108D00006B20FFF707FE10BD40340020642B0020CD
:108D10001720002008B5074BDA7B002A09D19A7B7F
:108D2000002A06D11B7C002B03D1034B1878FFF7D8
:108D3000A3FF08BD642B00204034002038B5051E79
:108D400001D0FFF7E7FF114B1878FFF733FE104C07
:108D50002078FFF7F4FE0020FFF736FF0020FFF732
:108D60003AFF0120FFF73EFFA57301246C40201C51
:108D7000FFF70BFE201CFFF70FFE201CFFF713FE72
:108D8000281CFFF7B9FEFFF735FF38BD172000207C
:108D9000642B0020B0B5131C6C460833DB08DB00E5
:108DA000E31A00AF9D466C4600232070D8B2904273
:108DB00004D2CD5CE01845700133F7E7064B211C67
:108DC0001878012301F03AFC002801D0002000E0CF
:108DD0000248BD46B0BDC046752B002001400000D2
:108DE00073B56B46141C0122154ED9710733051C4F
:108DF000191C3078131C01F021FC00281BD0012322
:108E00003078291C1843221C01F018FC002814D0CB
:108E10000423C046C046C046C046C046C046C04601
:108E2000C046C046C046C046C046C046C046013BDC
:108E3000181EEED102E0034800E0034876BDC046AC
:108E4000752B0020014000000240000013B501AC6A
:108E5000201C0C210222FFF7C3FF002801D00B4881
:108E600013E0202263780C209343211C1E3A637088
:108E7000FFF790FF0028F2D120706070211C1A309B
:108E80000222FFF787FF0028E9D116BD0440000049
:108E900037B5234B400001AC18701821201C02226A
:108EA000FFF79EFF002801D01E4837E0201C082154
:108EB0000222FFF795FF0028F6D120706070211C78
:108EC00006300222FFF766FF0028EDD120706070A7
:108ED000211C0A300222FFF75DFF0028E4D17C2329
:108EE000FF251830211C022223706570FFF752FF06
:108EF0000028D9D197230C302370211C3B3B022240
:108F00006370FFF747FF0028CED12070211C14307A
:108F100002226570FFF73EFF0028C5D13EBDC04666
:108F2000752B00200340000008B504210222FFF742
:108F300057FF002800D0014808BDC046054000008A
:108F400037B501AD041C1A21281C0222FFF748FF87
:108F500000281CD101222B78134201D0207013E08D
:108F600002210B420AD10422134201D021700BE0EE
:108F7000190701D5032306E0D90601D5227003E0C5
:108F80009B0601D505232370FFF760FF00E0014831
:108F90003EBDC046064000000423C046C046C04651
:108FA000C046C046C046C046C046C046C046C04691
:108FB000C046C046C046013B002BEED170470000C2
:108FC00007B5094A01AB187059701078191C0222B4
:108FD000012301F033FB002803D0FFF7DDFF002061
:108FE00000E002480EBDC046762B0020164000006F
:108FF00010B50F4C6378002B17D1FF214000207073
:109000000320A170FFF7DCFF011E01D009480DE02D
:109010000220FFF7D5FF011EF8D10120FFF7D0FF96
:109020000028F3D10123637000E0034810BDC0465F
:10903000762B00200740000006400000002170B59C
:1090400000781F4BCAB25C1865781C1C854200D1A1
:10905000101C01310429F4D1421CD100635C012BA6
:1090600008D161184B78002B01D1CB7800E00023A8
:109070004B701EE0022B21D163189D785978002D8A
:1090800006D0DE780431B14208DB5E70002103E0D7
:10909000042903DC01215D7099700AE0D300E31814
:1090A00059780426002D00D1F836D3007118E31842
:1090B0005970D200A318597800F0C0FA70BDC046AC
:1090C00018200020F8B50023234CDDB2E2185278B6
:1090D0005F1C82423CD1061C002000F0CBFAFB0052
:1090E000E318586802F08AFB032D0DD0691C631841
:1090F0005B7865196B704B1CCA00DB00A218E31883
:1091000021CB21C2CDB2EFE7FF2300250121201C96
:109110002371631CDD77A31CDD77E31CD977231D46
:10912000DD770E4A243002F0FBFA2378201C013B45
:10913000237000F07FF92B1C221C3832995CB1425D
:1091400002D1FF21D15406E00133042BF4D102E017
:109150003B1E042BB8D1F8BD182000203D90010023
:10916000F0B5051CA5B0019103921E1CFFF7AAFFE4
:109170002B1CA0220321C133FF33D2059B00995041
:109180000123AB40002739495350394C7A1CE3196D
:109190005B780292FF2B62D1012E04D13220019B19
:1091A0004343019308E06420019B5843039B9908C3
:1091B000490005F07DF80190002000F05BFA6A4656
:1091C000E7197D702378127B01332370029BDB004B
:1091D000E654E318DA700023221C3832995CDFB2BF
:1091E000FF2901D1D55403E00133042BF4D11F1C16
:1091F000201C00F01FF9002804D0281CFFF762FF94
:109200001C4C30E0029B0199DB00E318CA03029377
:109210004B0C00211848383480185941174A002354
:1092200005F076F9029B011CE219586802F09EFADB
:10923000041EE2D12B1C1C3B012B02D80120FFF79E
:1092400031FA012000F016FA04A80D492A1C331C3B
:1092500007F014FB04A9002001F036F903E0029F97
:10926000042F92D1074C201C25B0F0BD0C05000046
:109270001820002005600000DC050000B80B00008D
:109280004A2502000360000038B5094B1D1C2C3331
:109290001C1C0C35281C0121064A02F041FA00284A
:1092A00003D10835A542F5D100E0034838BDC046DA
:1092B000182000203D9001000460000010B5041C3F
:1092C000FFF700FF0120FFF7EDF9231CA022032187
:1092D0000120C133FF33D2059B009950A123A04048
:1092E000DB00D050002010BD10B5041CFFF7EAFED3
:1092F0000020FFF7D7F90120231CA0220321A04062
:10930000C133FF33D2059B009950024BD05000204F
:1093100010BDC0460C05000070B5041C0E1C151CC9
:10932000FFF7D0FE231CA0220321C133FF33D20557
:109330009B0099500123181CA04004495050311C37
:109340002A1C201CFFF70CFF70BDC0460C05000056
:1093500070B5041C0E1C151CFFF7B4FE231CA022C4
:109360000321C133FF33D2059B0099500123A34051
:109370000549201C53500A2171432A1CC9B20223FB
:10938000FFF7EEFE70BDC0460C05000045DF7047DC
:1093900047DF70474EDF704750DF704710B50C4B0A
:1093A000041C1B6899420AD800208C420FD3094A3A
:1093B0001268D31A59188C428041404207E0CB1AF8
:1093C00001209C4203D300238C425B41D8B210BDE4
:1093D000542000207C2B002010B5041E0F2C06D832
:1093E000C0B2FFF7D5FF0120A040FFF7CFFF10BDAF
:1093F000012230B5151CA123A0248D40DB00E4051B
:10940000E550094B8000C018A223084CDB00C45073
:10941000C046C046C0460260054A09021143C15019
:10942000C046C046C04630BD00600040031F01007A
:1094300003001300F7B50378041C013B032B00D98C
:10944000D7E0031C34331878052800D9D1E0A222D4
:10945000694FD200694B04F091FE0305070C10120E
:10946000092107E009210BE00621B950FA229200F8
:1094700008E00321B950642204E0012100E000214A
:10948000B950FF221A60A222D200BA585C49895C06
:109490005C4A116022785A6000230192019A93423B
:1094A00017D2E118554D4A78980008354251A02549
:1094B0000326C132FF329200ED05565100254F4A76
:1094C0003031183285504D4A097828329954013389
:1094D000E4E7A12200230125D200FD60BB50474AEA
:1094E000802611680420D162A922D200B950944686
:1094F000454AB600BB50454AB8511365D3649364DE
:109500005364019A022A13D9414AD560A125ED007E
:109510005351654651513C4953503E4990510B655A
:10952000CB648B644B64A2233349DB00C958D15010
:10953000019B002B2ED0314D374B28352E783749E3
:10954000B600F618231C28331878321CFFF744FFA6
:10955000231C29331878321C3149FFF73DFF0023C3
:10956000264E30363370019B012B13D06D782A4B79
:10957000AD00ED18231C2A3318782A492A1CFFF75E
:109580002BFF231C2B33187825492A1CFFF724FFB7
:109590000023737002252C34019B9D4218D2174B77
:1095A00020782833EE5C1C4BB600F6181E4B321C9C
:1095B000E9188900FFF710FF6078321C1B49FFF79C
:1095C0000BFF00220D4B02343033EA540135E3E740
:1095D0001748FFF7DFFE0123164A00201360074AF1
:1095E0003B605268022A06D9134A1360084A136086
:1095F00001E001204042FEBD00A000407C2B002085
:10960000692502005420002004050000FCA0004051
:1096100000900040FC9000400060004040A10040ED
:1096200048A1004044A100404E2400104891004051
:10963000099901000CAC00400C9C00401FB50B4B7D
:1096400082009A185163012230331A5400236A466B
:1096500013701371FA2202926A465371044B6846E2
:109660000393FFF799FE05B000BDC0467C2B002098
:10967000A086010070B517490123174A002806D0BB
:109680000B605268022A24D9144A136021E04B600F
:109690005068022801D911494B600023834218D039
:1096A000111C2831595C0E4D45310E4CFF3189009B
:1096B0000D51111C9C00083165580121A026A940BC
:1096C000094DF6057151111C002518316550013303
:1096D000E4E770BD00A000407C2B0020009000401B
:1096E000001F0300006000400C050000A922F0B537
:1096F0007E4C7F49E36AD20023608B50606885B05E
:109700000291022801D97B498B5000236364666C67
:1097100063689E4200D3E6E0231C30339A5D002A42
:1097200000D1DDE00022B50065199A556B6B0193FD
:10973000934212D1231C28339B5D6F4945336F4AF6
:10974000FF339B0099500123AA68A02193406C4AE3
:10975000C9058B50019BAB61C2E0019B21688B4224
:1097600012D3231C28339B5D634845336349FF3381
:109770009B0058500123A968A0208B40A121C0055F
:10978000C9004350AA61ABE0019BA364012E54D8E9
:10979000331C5133FF33029A9B00D358544F039329
:1097A000E364AB69002B18D1231C28339E5DA968A4
:1097B000301CFFF71DFE0123524AAB61FB64BA580F
:1097C00001998A4231D94D4AB600B3502DE07859FB
:1097D0000199FFF7E3FD00280CD10123029A494DBE
:1097E000D364029B03995859414FFFF7D7FD0028D6
:1097F000F3D0ECE77B59039A934203D37B59019A48
:1098000093420BD33F4A029B9B58039A93420CD23C
:10981000374A3C4BD358019A934206D3231C01216B
:1098200028339B5D354A9B009950636C029A5133F3
:10983000FF33A16C9B00D15052E0331C4F332D4FAE
:10984000FF339B00DB590393E364AB69002B19D111
:10985000231C28339E5DA968301CFFF7C9FD012336
:10986000284AAB61FB64BA5801998A4232D9234A2B
:10987000B600B3502EE01F4B01995859FFF78EFDEB
:1098800000280BD101231B4A1E4DD364131C0399DE
:109890005859FFF783FD0028F4D0ECE7154B039AE5
:1098A0005B59934204D3134B019A5B5993420AD3F9
:1098B000144B039AFB5893420CD20E4A114BD358C7
:1098C000019A934206D3231C012128339B5D0B4A46
:1098D0009B009950636CA26C4F33FF339B00FA508E
:1098E000636C013312E705B0F0BDC0467C2B00204D
:1098F00000A0004000900040001F030000600040F6
:109900000C0500004C050000064B02211A1C5032C9
:1099100010B511701C1C002801D1FFF7E7FE201CB8
:10992000503010BD7C2B0020F0B585B000AF7A60C0
:10993000F973002B0CD101220F334000F918C0B28B
:10994000131C00F07BFE012358404042C0B224E0CB
:1099500069466C465B00B960D91DC908C900611A27
:109960008D460024FE7B9C420BDA6508AA190A5535
:109970000A1994467A680234555D6246E4B255701D
:10998000F1E74000DAB2C0B2012300F057FE012334
:109990005840BB6840429D46C0B2BD4640B205B08B
:1099A000F0BD08B503F036F908BDF8B5161C002265
:1099B0001D1C131C041CFFF7B7FF00281DD1012735
:1099C00064003C433B1CE0B2311C2A1C00F036FE14
:1099D000042378404042C0B2C046C046C046C0469C
:1099E000C046C046C046C046C046C046C046C04647
:1099F000C046C046013B002BEED140B2F8BD00008E
:109A0000002373B501AC23706370A3700C4B1A680C
:109A10008123002A12D0131C2933051C566B187899
:109A2000221C0323FA21B04763781A0123781B0311
:109A30001343A278120913432B60031C58B276BD5E
:109A4000D42B002010B50D4B02111968C0100C88E2
:109A5000121B6400001B02240B5F5843131C53436A
:109A600004240A5F1B135343C0129B13C318052021
:109A70005843803000124B6210BDC046D42B0020EA
:109A8000002373B501AC23706370A3700C4B1A688C
:109A90008123002A12D0131C2933051C566B187819
:109AA000221C0323F721B04763781A0123781B0394
:109AB0001343A278120913432B60031C58B276BDDE
:109AC000D42B002070B5274B274A1C684042636A9C
:109AD0005B109B18991049431025625FCE125643C4
:109AE0000E25625F49135A43550072190A26A55F75
:109AF000921069430826A55FC9106B435B10CB1811
:109B000080219B1409025B18E18859430C25635F8F
:109B1000C9131B04D2181213144B801A5843144B48
:109B20000025C01805D4A9421AD0400004F030FB2B
:109B300004E0A94214D004F02BFB4000C3085B43AF
:109B40001621625E5B0B53431421625E8508554308
:109B50001B136D131221625E5B199B181B11C51834
:109B6000281C70BDD42B00200006FFFF350C000020
:109B7000000050C3002373B501AC237063700B4B1E
:109B80001A688123002A0ED0131C2933051C566B3A
:109B90001878221C0223FD21B047237862781B022B
:109BA00013432B60031C58B276BDC046D42B002053
:109BB000F0B51D4B1D4A1D6886036B6A1F219F1857
:109BC0001E23EA5E287F1205B41A2023EA5E802352
:109BD0007A43DB01A21AD218EB1C59568023784332
:109BE0001B02C012C01880237943891241439B0392
:109BF0008912C9181A23EC5E802361439B01CB189C
:109C00009B13D2135A43D3135B43287EDB11434388
:109C10001B11D31AD843C822C017034052059342E0
:109C200000DD131C1813F0BDD42B002000D4FEFF60
:109C3000F0B589B001AC201C00211A2206F04CFDC1
:109C40003F4D81202B68002B00D175E01A1C293272
:109C50005E6B10788821221C1A23B0476278217825
:109C60002B6812020A431A800322A256A17812021C
:109C70000A435A800522A256217912020A439A8089
:109C8000E279A17912020A43DA800922A256217AE6
:109C900012020A431A810B22A256A17A12020A4327
:109CA0005A810D22A256217B12020A439A810F2269
:109CB000A256A17B12020A43DA811122A256217C0C
:109CC00012020A431A821322A256A17C12020A43EC
:109CD0005A821522A256217D12020A439A82172225
:109CE000A256A17D12020A43DA82627E061C1A760F
:109CF0001A1C293210785F6BE121221C0723B84718
:109D00000122A256217812020A4303212B688019EE
:109D10005A83A278C0B21A77615622790D010F21B9
:109D200011402943D98305216156120909010A43CB
:109D30001A84A2790333DA7740B209B0F0BDC04685
:109D4000D42B002073B56A46D51D00222A70021C50
:109D5000031C094E293230605C6BD021107801233E
:109D60002A1CA04733682A7828331A70041CFFF78E
:109D70005FFF001940B276BDD42B002073B56B464F
:109D8000DD1D00232B700A4B1A688123002A0DD099
:109D9000131C2933041C566B18782A1C0123F42148
:109DA000B04703232A7813402370031C58B276BDB2
:109DB000D42B002013B56B46DA1DB6231370074B66
:109DC00081201B68002B06D0191C293108781C6BD8
:109DD000E0210123A04740B216BDC046D42B00208D
:109DE00038B5084B041C1D688120002D07D0281CA5
:109DF0002930131C00780A1C211C2C6BA04740B290
:109E000038BDC046D42B002038B5084B041C1D6853
:109E10008120002D07D0281C2930131C00780A1C33
:109E2000211C6C6BA04740B238BDC046D42B00202B
:109E30000023F0B5364C85B002AA571D5371961D0C
:109E40009371D371226803AD01902B7081209A42E7
:109E50005BD0019B2E32590113781F221A400B1C34
:109E6000381C13432B70FFF789FF3B78002B1ED063
:109E7000FFF7A0FF236803209B6B9847236802AA83
:109E80002F331B78D11DD371F5200122FFF7A8FFD6
:109E90002368311C2D331B780122F2203370FFF729
:109EA0009FFF291C0122F420FFF79AFF08E0236896
:109EB000F4211A1C293210781E6B2A1C0123B0478A
:109EC0006A46236812792A331A70291C0122F42069
:109ED000FFF79AFF23682A782E33061C1A70291C74
:109EE0000122F220FFF790FF23682A782D33801992
:109EF0001A70C6B20122F520291CFFF785FF2368DE
:109F00002A7830182F331A70C0B240B205B0F0BDB5
:109F1000D42B00200023F0B5374C85B002AA571D82
:109F20005371961D9371D371226803AD01902B700C
:109F300081209A425CD0019B65389B000340191C2C
:109F40002E32137883430B43381C2B70FFF716FF18
:109F50003B78002B1ED0FFF72DFF236803209B6B5F
:109F60009847236802AA2F331B78D11DD371F5209F
:109F70000122FFF735FF2368311C2D331B780122A6
:109F8000F2203370FFF72CFF291C0122F420FFF789
:109F900027FF08E02368F4211A1C293210781E6B71
:109FA0002A1C0123B0476A46236812792B331A70A2
:109FB000291C0122F420FFF727FF23682A782E337B
:109FC000061C1A70291C0122F220FFF71DFF2368CE
:109FD0002A782D3380191A70C6B20122F520291C67
:109FE000FFF712FF23682A7830182F331A70C0B297
:109FF00040B205B0F0BDC046D42B00200023F0B520
:10A00000434C85B002AA551D9371D71DD3712268A8
:10A0100003AE009033702B7081209A4275D02D32A0
:10A02000137800997A38014083430B43381C33700E
:10A03000FFF7A4FE3B780190002B27D0FFF7BAFE74
:10A040002368071C9B6B03209847236802AA2F33C1
:10A050001B78911D9371F5200122FFF7C1FE019B32
:10A06000311C3F180122F220FF18FFF7B9FE2368C8
:10A07000FFB22E331B783F18291CF42001222B70CD
:10A08000FFF7AEFEFFB23F18FEB216E02368F221E2
:10A090001A1C293210781F6B321C0123B847236821
:10A0A000061C2E331B78F420291C01222B70FFF78D
:10A0B00097FE019B3618F618F6B26A46144C1278D1
:10A0C000236803AD2C331A70291C0122F420FFF7FA
:10A0D0009BFE23682A782E331A708619291C0122C8
:10A0E000F220FFF791FE23682A78F6B22D3330185C
:10A0F0001A70C6B20122F520291CFFF785FE2368DD
:10A100002A7830182F331A70C0B240B205B0F0BDB3
:10A11000D42B0020F7B56B466A46DE1C0023334C77
:10A1200053719371D51D226801AF33703B702B7052
:10A130008133002A57D07D33032854D82E32137828
:10A140000322934318433070381CFFF717FE3B7807
:10A15000002B1FD0FFF72EFE236803209B6B984730
:10A160006A462368911D2F331B78F52093710122D5
:10A17000FFF736FE6A462368511D2D331B78F22007
:10A1800053710122FFF72CFE311C0122F420FFF74E
:10A1900027FE08E02368F4211A1C293210781F6B6F
:10A1A000321C0123B847291C0122F420FFF72CFEA2
:10A1B00023682A782E331A70061C291C0122F220EB
:10A1C000FFF722FE23682A782D331A708619291C7E
:10A1D0000122F520FFF718FE2268F6B2297833181D
:10A1E0002F321170DBB258B2FEBDC046D42B002016
:10A1F0000023F0B5394D85B002AA53719371D37124
:10A20000971DD61D2A6803AC23708133002A62D0C3
:10A210001C212F32137880008B4308401843207094
:10A22000381CFFF7ABFD3B780190002B27D0FFF7E0
:10A23000C1FD2B68071C9B6B03209847211C012242
:10A24000F520FFF7CDFD019B3F18FF182B68311C4F
:10A250002D331B780122F2203370FFF7C1FD2B68EC
:10A2600002AA2E331B78FFB23F185371511DF42000
:10A270000122FFF7B5FDFFB23F18FFB209E02B68DE
:10A28000F5211A1C293210781D6B221C0123A847C6
:10A29000071C211C0122F420FFF7B6FD0F4D227888
:10A2A0002B68C7192E331A70211C0122F220FFF7E8
:10A2B000ABFD2B6822782D33FFB21A703F18211C9A
:10A2C0000122F520FFF7A0FD2A68FFB221783B1894
:10A2D0002F321170DBB258B205B0F0BDD42B002084
:10A2E00008B5174A174B1A63174A5A631A1C2932C2
:10A2F0001070164A181C9A63FFF724FD002801D03D
:10A3000013481BE00320FFF705FF0028F8D1FFF7F3
:10A310006FFF0028F4D10130FFF770FE0028EFD165
:10A320000130FFF7F7FD0028EAD10130FFF780FD8B
:10A330000028E5D1FFF7EEFE0028E1D108BDC046B8
:10A340002999010044340020AB990100A399010030
:10A3500003200000002313B5041C036001A801932F
:10A36000FFF74EFB00280AD10198FFF76BFB206036
:10A370000120FFF7CFFE002802D0024800E002488B
:10A3800016BDC0460120000002200000002313B5C6
:10A39000041C036001A80193FFF772FB00280AD197
:10A3A0000198FFF78FFB20600120FFF7B3FE002824
:10A3B00002D0024800E0024816BDC046012000005D
:10A3C00002200000002313B5041C036001A80193C0
:10A3D000FFF7D0FB00280AD10198FFF7E9FB2060C6
:10A3E0000120FFF797FE002802D0024800E0024853
:10A3F00016BDC0460120000002200000F0B5161C6A
:10A400001822071C424303202E4B85B09A18D36AAA
:10A410000391184002280DD0111C2031936A49681D
:10A420005B1A013B01D5126A9B189E4202DD00288F
:10A4300045D01E1C0020864241D001901822101CDD
:10A440007843204B1818011C2031846A4968641A2B
:10A45000191C013C01D5036AE4187A438A18101CC0
:10A46000136A20300293536A029AD31A9C4201DB8A
:10A470004468141BB44200DD341C18231D1C781CD6
:10A4800043437D43CB184D196A6A58680399801875
:10A49000221C06F018F9019B361B1B190193039B24
:10A4A000029A1B1903936B6A20351C196C606B6848
:10A4B000934201D100236B60002EBFD1019805B0FB
:10A4C000F0BDC0465820002010B50A1E06D00B1C57
:10A4D0001C785A1A002C01D00133F9E7FFF78EFFE0
:10A4E00010BD82B00190C046C046C046C046C046BE
:10A4F000C046C046C046C046C046C046C046C0462C
:10A50000C046019B013B0193002BECD102B0704788
:10A51000A023F0B5284FDB00FA5885B00092A024A4
:10A520000022264EFA50E405A359254A0193E02360
:10A53000A251DB00E15801250291E2500222F93BD1
:10A54000FF3BE5500420E250FFF7CBFFA223DB00E6
:10A55000E2580397371C2A4206D0E3581324EB40F5
:10A560002B4202D0012018E01324013C002C13D010
:10A57000A0250226134BED05EE500420FFF7B1FF96
:10A58000A123DB00EE500420FFF7ABFFA223DB008A
:10A59000EB58DB07E9D5E5E7201CA023019ADB0592
:10A5A000DA51E0220299D2009950A023039A00992F
:10A5B000DB00D15005B0F0BD0040004004070000B2
:10A5C0000D0600000C05000038B5A023124A1349FF
:10A5D000DB055A5004395A50114B0022191CFC312A
:10A5E000CA600A62A12101200E4CC90058501A51BC
:10A5F000CC240D4A64049C50A2240C4A0C4DE40067
:10A6000015510C4D0C4C15515050A0220521D20073
:10A610009950FFF77DFF38BD0C06000004070000CD
:10A62000004000400C0500002405000000F001403F
:10A63000384100401C40004014050000F0B585B0D2
:10A64000071C0E1C01920293002A01D100249DE0F8
:10A65000FFF75EFF0028F9D0B1234E4C7A08DB00EB
:10A66000E25001224C4D17424BD0019B4B4F93427D
:10A6700001D14B4B00E04B4B4B4ABB5001234B4AA3
:10A68000BB500022EA602360494B0293EB68002B29
:10A6900008D1414B9B6A002B04D1029B013B0293E2
:10A6A000002BF3D10023EB60029B002B41D03A4BEF
:10A6B0009B6A002B3DD1731C0393A323354ADB0017
:10A6C000D3583370019B013BDBB20193012B03D1C3
:10A6D000334B354ABB5002E0019B002B06D01420BF
:10A6E000FFF7FFFE01232362039ECFE7AB68002B39
:10A6F000FCD00022284B01249A60A123DB00FC50EF
:10A7000041E030782B4B711CE050A260284A286A47
:10A71000002807D12048806A002803D1013A002A86
:10A72000F5D106E0002A04D0AF6A1A481A4E002F6D
:10A7300011D00026AE62A0251F4FED006651052006
:10A74000E651FFF7CEFE0123E35104336351FFF7D7
:10A750003BFF341C17E03762019F013FFFB20197B6
:10A76000002F03D00E780131C650D0E7029B002B9A
:10A7700001D1012407E0019BB36001234361AB6871
:10A78000002BFCD0F5E76420FFF7ABFE201C05B0E2
:10A79000F0BDC04600400040FC40004000F00140D9
:10A7A000144000401C400040140500000405000057
:10A7B000204E00001C050000FC0F0000A0DF7047C9
:10A7C000A2DF7047F0B591B001900F1C151C1C1C46
:10A7D000002904D1081C1B4A6D21FCF727FC002D21
:10A7E00004D1281C6E21174AFCF720FC09AE301C4E
:10A7F00000211C2205F070FF012202A98A710A1CA7
:10A8000069460223898833709180227802A90A70F0
:10A81000627804AC4A708B70201C0021142205F071
:10A820005BFF03AB049302AB6360074B311C1888DA
:10A83000221C169B2581A5812761FFF7C1FF11B05E
:10A84000F0BDC0467C250200EA2F002030B5041C74
:10A8500001205A4D87B05A4B03A92A1C88700B80DF
:10A86000FFF7ACFF002800D0A5E02288002A03D122
:10A870002289002A17D00AE0AB1C0093231C514800
:10A8800061683C33FFF79EFF0028F1D093E02B1C5A
:10A890000A330093231C4C48E1683C33FFF792FFD6
:10A8A000002800D087E0228A002A0AD02B1C12330D
:10A8B0000093231C454861693C33FFF783FF002860
:10A8C00079D1228B002A0AD02B1C1A330093231C27
:10A8D0003F48E1693C33FFF775FF00286BD1228CBC
:10A8E000002A0AD02B1C22330093231C3948616AAA
:10A8F0003C33FFF767FF00285DD1228D002A0AD084
:10A900002B1C2A330093231C3348E16A3C33FFF7A6
:10A9100059FF00284FD1236B002B1CD01A7804A9B3
:10A920000A705A782D484A709A788A701A68120EFE
:10A93000CA701A790A719B681A0A4B711B0CCB7189
:10A940002B1C32338A710093231C08223C33FFF7FF
:10A9500039FF00282FD1636B002B03D1A06B002897
:10A960000DD128E0291C3A311A7900911968231C6D
:10A970001B483C33FFF726FF0028EFD01BE003788D
:10A9800004A90B70438842354B701B0A8B70838877
:10A990000722CB701B0A0B71C38812484B711B0A2C
:10A9A0008B71231C00953C33FFF70CFF031C002028
:10A9B000834200D0181C07B030BDC046EA2F0020EB
:10A9C0000A180000292A0000242A0000252A000075
:10A9D000272A0000262A0000282A0000232A000037
:10A9E0002A2A0000502A000038B5041C081C0D1C3F
:10A9F00005F06EFF6560208038BD26DF704751DFAF
:10AA0000704710DF704761DF704708B5081C111CE4
:10AA1000FCF748FB08BD0000F0B5234D85B02B784E
:10AA2000002B3ED06E68AC6873425E4163425C416D
:10AA3000F6B2E4B2002E32D103A8FFF7E0FF0528FA
:10AA40000AD0002804D06921184AFCF7EFFA04E084
:10AA500003986B68984700E00126002C1CD1AB8955
:10AA600003A90B802B690124181C0193FFF7CBFF6E
:10AA7000071E052F0BD0002805D080210B4AFCF7BC
:10AA8000D5FA002403E00198AB6898473C1C002EDF
:10AA9000D0D0002CCED004E0002E02D1CAE7002C8A
:10AAA000DDD005B0F0BDC04634300020D525020011
:10AAB00038B5051C0720002910D08C070ED1084C92
:10AAC000281C21610749A2816361FFF79AFF0028D2
:10AAD00004D1012316302370FFF78FFF38BDC04625
:10AAE000343000200BAA01000E23002802D0024BB4
:10AAF00098600023181C7047343000200E23002873
:10AB000002D0024B58600023181C704734300020DC
:10AB100008B5084B5B69002B08D09847002807D080
:10AB20009921054A4900FCF781FA01E0FFF774FF1B
:10AB300008BDC04634300020D525020072DF7047C2
:10AB400079DF70477DDF704765DF7047F0B500241F
:10AB5000061C251C87B00C9F00933B780391029242
:10AB6000019333889D423ADA7368A9005918042288
:10AB700005A805F0A8FD04AB05A8D91C0022FFF725
:10AB8000E3FF002835D104ABDB78029A934222D14F
:10AB90006242624102993B78520059188A181F2A72
:10ABA0001BDC002C07D169469A1C3A700133009ACD
:10ABB000097BDBB2D15404ABDC1C3A78009B05A8BE
:10ABC0009A18211CFFF7C0FF002812D12378012416
:10ABD0003A78D3183B700135C3E70C2009E0002018
:10ABE000844206D03B78019A013B9B1A0199009A56
:10ABF000535407B0F0BDF7B5089E171C009602220B
:10AC0000051C1C1CFFF7A2FF002806D10096281C7B
:10AC1000391C1022231CFFF799FFFEBD0023F0B55D
:10AC20001370037889B0061C0D1C141C002B03D173
:10AC3000B378002B4BD029E043780C201D2B00DD8E
:10AC400061E10E2704ABFF181D23881C391C3B80D3
:10AC5000FFF778FF002800D055E13378022B03D1AD
:10AC60003B8809221D2B08D97378002B03D09BB297
:10AC700008221D2B01D908223B88DBB2591C297000
:10AC80006A70227802329B182370D1E723780C2057
:10AC90001B2B00DD37E10E2704ABFF18381CFFF734
:10ACA0004FFF002800D02EE123785A1C2270032287
:10ACB000EA5423785A1C22701922EA5423783A88DD
:10ACC000EB181A70120A5A70237802332370B38873
:10ACD000002B1FD0B2680720002A00D113E1227890
:10ACE0000530911CCB181F2B00DD0CE1531C237089
:10ACF000B3880133AB5423785A1C22700122EA54E2
:10AD00002078B2882818B16805F0DDFCB288237875
:10AD1000D3182370F368002B12D01A7823780C20F4
:10AD20001C2B00DDEFE0591C21700221E95423782F
:10AD3000591C21700A21E9542378591C2170EA54C6
:10AD4000338A002B03D1338B002B16D00AE0301C42
:10AD500000941030022106222B1CFFF74CFF002824
:10AD6000F1D0D0E0301C00941830032107222B1CB6
:10AD7000FFF741FF002800D0C5E0338C002B0AD03C
:10AD8000301C00942030142115222B1CFFF733FFB8
:10AD9000002800D0B7E0B36A002B49D022780C20FD
:10ADA000049206321F2A00D9ADE01988053805291A
:10ADB00000D8A8E0554A564F8A1892B2BA4200D835
:10ADC000A1E05A880392052A00D89CE04F4FBC4668
:10ADD0009444674602AA97819789BC464C4FBC456C
:10ADE00000D890E04B4FB94205D0039ABA4202D046
:10ADF000914200D987E0049A049901322270052219
:10AE00006A542278511C21701221A9542278198881
:10AE1000AA181170090A517022780232D2B2227037
:10AE20005988AB181970090A5970237802332370B6
:10AE3000F76A002F29D03A792178931C881CDBB25D
:10AE4000C3180C201F2B5EDC4B1C033223706A548A
:10AE500023785A1C2270FF22EA5423783A88EB1890
:10AE60001A70120A5A7023780233DBB22370BA8840
:10AE7000002A0AD0B9680538002944D0E81805F03E
:10AE800022FCBA882378D3182370331C34330593FB
:10AE90001B78002B01D1002035E0336B002B31D023
:10AEA00000230493059B049A1B789342F3D90C2743
:10AEB000049B22785F43336B511CDF193B7921706F
:10AEC0000333AB5423785A1C22701622EA54237899
:10AED0003A88EB181A70120A5A7020780230C0B201
:10AEE0002070BA88002A09D0B96800290AD0281829
:10AEF00005F0E9FBBA882378D3182370049B01334B
:10AF0000DBB2CEE7072009B0F0BDC0467FF3FFFFFC
:10AF10007DF30000FFFF0000F0B593B06B466A467A
:10AF20009E1D0023D71D0D1C33703B7098420BD023
:10AF30008388002B01D1072024E08368002BFAD0FE
:10AF40001B785B07F7D50DE0041C002D03D0AB8800
:10AF5000002BF0D10EE02A1C31783B78201CFFF743
:10AF6000EDFD0FE002A9321CFFF758FE02AC0028ED
:10AF7000EBD007E03A1C281C0AA9FFF74FFE0AAAEB
:10AF80000028E9D013B0F0BD75DF704776DF704759
:10AF90007ADF70477BDF704737B5164C164B208839
:10AFA000251C984225D0A378227C0133DBB2A37004
:10AFB0009A4209D3211C2031FFF7E6FF002818D060
:10AFC000E369002B14D114E00023A370237D002B30
:10AFD00008D03B21FFF7DAFF002803D0E369002BFC
:10AFE00000D09847AB69002B03D0002201A8027063
:10AFF000984737BD4C300020FFFF000013B5174CB9
:10B00000638D228C9A420DD8628C9A420AD3A3692E
:10B01000002B03D0012201A802709847002334348A
:10B02000237013BD231C34331B78002B05D0A36978
:10B03000002BF3D001A80022EEE7A378002B01D16A
:10B04000A16800E0E168206B002200F08FFB00287F
:10B05000E4D0E369002BE0D1E0E7C0464C300020AB
:10B06000021C70B5144C231D62CA62C362CA62C35B
:10B070001268251C1A60231C002201683433203515
:10B080001A70281C914212D0083205F01CFB281CB3
:10B09000FFF77EFF00280DD1201C012300215B4219
:10B0A000064A30302380A17000F03AFB02E0FFF73F
:10B0B00071FFEFE770BDC0464C30002099AF010032
:10B0C00010B50388112B18D002D8102B05D039E009
:10B0D000122B2FD0502B17D034E01B4C8388011C2F
:10B0E000201C0E3128300822238005F0ECFA0023C2
:10B0F000A370638A002B25D122E00123124C5B420E
:10B1000023800023A3700BE00F4CC188628A914218
:10B1100018D1C38B022B15D10130C37FDB070FD4AD
:10B12000206B00F06BFB00280CD0E369002B09D0EA
:10B13000984707E0811D04480822283005F0C3FA2B
:10B14000FFF75CFF10BDC0464C30002010B54378BF
:10B15000827801339A1A041C501E824152421340D5
:10B1600022780020934205D00B6018236078434377
:10B170006068C01810BD0000154B02205968C90551
:10B18000C90D24D01039CBB25AB2002A0BDA0F22E3
:10B190001A40083AC24082400E49521803210B401F
:10B1A00052688B4007E092080B4BC0329200D25895
:10B1B00003230B40DB00DA40D3B29B09DBB2002053
:10B1C000012B04D0033B5A425A410230801A704787
:10B1D00000ED00E018ED00E000E100E02F23C046A4
:10B1E000C046C046C046C046C046C046C046C0462F
:10B1F000C046C046C046C046C046013B002BEED10B
:10B2000070470000802238B50B4B9202DA6780232A
:10B21000D2220125094C5B029200A350403AA35070
:10B220006560FFF7DBFFA5600025054C2560FFF793
:10B23000D5FF257138BDC04604E100E00010014093
:10B2400084300020F8B50025204B214C5D649D64BE
:10B25000DD641D655D609D60A7687B1C35D01D4B5E
:10B260001D4AD6582368F61A3602360A24235F434D
:10B27000E368DB195A68964215D3B61AAD182269ED
:10B280001F6A002A0AD09869D9699047002808D017
:10B290006421124AFF31FBF7C9FE02E09A69D869BE
:10B2A00090477B1CE2D1227D637D934205D101331F
:10B2B000DBB2022B00D1002363758022637D520331
:10B2C0009B00E418064BA5615A60F8BDFC100140D4
:10B2D00084300020040500000010014031260200E7
:10B2E000FCE100E0F0B5AE4B89B01A68597D0492DC
:10B2F0001A7D914211D00132D2B2022A00D100222D
:10B300001A751A7D049992009A189269009252183F
:10B310001202120A1A60012201E000220092059234
:10B320009A680133DB7F06920193013BDBB2039302
:10B33000039B9B4AFF2B61D0039B526ADB00D3180F
:10B340001C780293029B5B78A34255D01822029B83
:10B3500062435B68013407939A18029BE4B29B78BE
:10B360001B1B591E8B415B421C401378022B05D0DE
:10B37000032BE7D18A4BD9689A6831E024255268BB
:10B38000874B5543DF6894467D192A7D002AD9D022
:10B390009868011C061C4B1C1FD02423614504D057
:10B3A0004B43FA180E1C116AF5E78E4208D143434D
:10B3B000FB181B6A7A4A9360013301D1FFF722FF21
:10B3C00024235E43296ABE196A683162481C04D08E
:10B3D0004B43FF187B689B187B6000232B75B1E7FC
:10B3E000531C06D0242353430022CB181A751A6A23
:10B3F000F6E76B4B9A60A5E7039B96E70599936880
:10B40000002909D1069A9B1A5A1E9341DBB2029376
:10B4100001235B429C462DE0D568012252429446AE
:10B4200000205A1C22D024225A43AA185168009C9A
:10B430008C4205D25A48091B83605160012318E0F1
:10B44000009C4018641A0021009414695160117521
:10B45000166A8C4208D00499D46041180902090A7E
:10B46000916061469C461162331CDAE74C4A936056
:10B47000023302934A4B9A6803925A6A0692DA6838
:10B480001B6800920593039B019A013AD2B2019284
:10B49000FF2A00D188E0019A0699D2008A186146F5
:10B4A000013108D060462421414300986446411888
:10B4B000086A844624E0117850788842E4D0182045
:10B4C00048435468013120189478C9B211708C42F5
:10B4D00001D100211170017844681D1C01295DD142
:10B4E00023316143009D69180E7D1D1C002E55D12E
:10B4F00085688D60C568CD6005690D614069C8616A
:10B500008868059D274F451B2D022D0ACE68BD4238
:10B5100002D8AD194D600AE0059D281A0002000A04
:10B52000864202D9361A4E6001E0002048600020B1
:10B530008860C86001300875023808622530061C32
:10B5400066430099251C8E19591C27D05843009D2D
:10B55000716828184568A94204D8691A4160251CF9
:10B5600033621BE01D1C049324206843009F38189D
:10B570004768B94206D9006AC91B0495471C05D023
:10B58000051CF1E77F1A4760281C049D7160242187
:10B590004D43009930624D192C621D1C2B1C7EE717
:10B5A00084300020FEFF7F00284D039AAB60934259
:10B5B00002D1029A002A46D05A1C42D02422534378
:10B5C000EA68234CD3185B68224A0093A6582B687C
:10B5D00003920193F31A1B021B0A033302932B7984
:10B5E000002B12D18023C13A5B02FF3AA350403AAC
:10B5F000A350C02180220127174B920249005A50C4
:10B600001A602760FFF7EAFD2F71029B009A9342B0
:10B6100000D2131C019A9B18A8221B021B0AD200FD
:10B62000A350039AA258921B1202120A9E1B3602C2
:10B630000332360AB24206D98022084B92025A607F
:10B6400001E0FFF7DFFD09B0F0BDC0468430002007
:10B65000001001400405000000E100E0FCE100E012
:10B66000F8B51E1C051C0F1C141C0720B3074BD17A
:10B67000002E49D0FFF7C6FD244A069B2421136102
:10B68000131C28331F704F43F1190F1C331CD66055
:10B69000994204D00020187018752433F8E703206D
:10B6A000531CD8771823516218310E1C63430020B5
:10B6B000796038707870BC700837C918B742F6D115
:10B6C00001238024C021C526FF275B429360104BD5
:10B6D0006403490010755075B6005C509959B94320
:10B6E0003F3F39439951A1211C600A4CC900655064
:10B6F000C425AD005E5908493140C02636023143A9
:10B700005951064BE3581360F8BDC0468430002001
:10B7100000E100E000100140FF00FFFF0405000011
:10B72000F0B5114B061CDC680820002C1AD001383B
:10B73000002A17D0002E15D0002528331F78BD42CF
:10B740000FDA201C2434231C243B1B78002B06D149
:10B7500001244170047082613560181C02E00135DB
:10B76000EDE70420F0BDC04684300020F0B51F4C4A
:10B77000061CE56885B00820002D34D0231C283332
:10B780001B7801389E422ED204292CD924237343DE
:10B79000EB181D780130012D25D15B780027012B96
:10B7A00000D10F1C01920D1CFFF7E6FC646AC0007B
:10B7B0002418201C03A9FFF7C9FC031C0420002B3C
:10B7C00011D001220A491A700A4A5E608A58002084
:10B7D0009A60019ADD605A6180221F61039B5203C7
:10B7E0006370054B5A6005B0F0BDC0468430002040
:10B7F0000010014004050000FCE100E073B5154EA7
:10B800000823F268002A22D0331C28331978072332
:10B8100088421CD21D3343439A5C0823012A16D167
:10B82000051CFFF7A9FC746AC0002418201C01A99C
:10B83000FFF78CFC0423002809D08022023B037010
:10B84000019B45606370044B52035A600023181C2F
:10B8500076BDC04684300020FCE100E021DF704767
:10B8600020DF7047142337B50849021C0878084DBB
:10B8700058430C18201CE36821791B01EB18E5885C
:10B880000C300095DD6C6369A84737BDB0300020EF
:10B8900030310020F7B56C4C071C201C6C301D1C8F
:10B8A0000378002B06D1131C2B4301D1023300E097
:10B8B00001230370231C6C331B780320013B052BF1
:10B8C00000D9BFE0181C00950E1C151C02F056FC98
:10B8D00003243576629C80235C4A5B055169013103
:10B8E00005D05069196989B202F052FC00E058692C
:10B8F0008022520513691169126901389BB289B21D
:10B9000092B2584371439208FFF7A8FF002800D075
:10B9100098E06C34022394E0081CFFF7A1FF002894
:10B9200000D08FE0002D30D1009B002B28D13B7838
:10B93000042B22D16C34072324E080235B05196992
:10B94000424A89B24E435169013121D05069196987
:10B9500089B202F01DFC80235B051969013889B2A8
:10B9600041432A1C301CFFF779FF00286AD1009B55
:10B97000002B05D13B78042B1DD06C34052301E04E
:10B9800004236C34237000205CE06C34032358E003
:10B990005869E0E780235B051869910080B246434F
:10B9A0007A88881992083969FFF758FF002849D129
:10B9B000009B1D43BED06C340623E3E780235B0568
:10B9C0001969950089B24E437A880192B6181F4AC8
:10B9D00076195169013106D05069196989B202F0AE
:10B9E000D7FB411E01E05969013980235B051B69C2
:10B9F000019A9BB24B43AD18E918301C009AFFF72F
:10BA00002DFF0028B6D01DE08023104A5B05516948
:10BA1000013105D05069196989B202F0B9FB00E023
:10BA2000586980225205136911699BB20138584345
:10BA300089B202F0ADFBFFF713FF002802D1072304
:10BA40006C342370FEBDC046303100200010001061
:10BA5000F0B51424414A85B013785C431419211CB5
:10BA6000019323790831271D8D680292042B19D088
:10BA7000052B52D00F20022B6ED1394B20896E330B
:10BA80001E886369B602E2889919364B4019921BE9
:10BA900080199A4201D8920801E080225200FFF7F3
:10BAA000DDFE54E048682E4903010A1C4C32D218CE
:10BAB0001689CB18B44680261B6D528976050391F2
:10BAC000AB4204D163465A43E3889A4201D003282B
:10BAD0000BD13169281C89B202F05AFB039B6E33EB
