:020000021000EC
:106000000040002095DA0100DDDA0100516801004E
:106010000000000000000000000000000000000080
:10602000000000000000000000000000E1DA0100B4
:106030000000000000000000E3DA0100E5DA0100E2
:10604000E7DA0100E7DA0100E7DA0100E7DA010048
:10605000E7DA01000000000049D60100E7DA01009C
:10606000E7DA0100E7DA0100CD7E0100E7DA01009E
:10607000E7DA0100E7DA0100E7DA0100E7DA010018
:10608000E7DA010059BE0100E7DA0100E7DA0100B2
:10609000F9BE0100E7DA010025B70100E7DA0100E7
:1060A000E7DA0100E7DA010000000000000000006C
:1060B00000000000000000000000000000000000E0
:1060C000164B002B00D1144B9D46402292029A1A87
:1060D000924600218B460F461348144A121A08F0C4
:1060E00031F90F4B002B00D098470E4B002B00D0FE
:1060F00098470020002104000D000D48002802D020
:106100000C4800E000BF08F0DFF82000290000F094
:1061100087FD08F0C3F8C0460000080000400020DA
:1061200000000000000000002821002010360020A0
:1061300000000000000000000021704700B50D4B7A
:10614000A1B0984208D168460B4908F0D5F96946D4
:10615000002003F019F80AE00823021C9A4306D035
:10616000064B984203D01421054A00F023FB21B0CE
:1061700000BDC04604300000A8EB0100013400005F
:10618000C2EB010070B5061C8CB00D1C141C03A8DA
:10619000311C062204F0F4FA002808D1069B03A85B
:1061A000E118019304F089FC00281DD107E003A841
:1061B000311C022204F0E4FA0028EFD014E0069B20
:1061C00003A8191B019304F078FC00280CD102905D
:1061D000291C03A8221C02AB04F069FB002803D190
:1061E00003A804F05DFC01E0802040020CB070BD0B
:1061F000A0DF7047A2DF7047A4DF7047A6DF7047BB
:1062000063DF7047F0B50B68041C036001235B4239
:1062100003810A7903778272FF2283774277C377FB
:106220004879621CD0773132137053709370D370F9
:1062300088799375D37513765376231C10261071C5
:10624000CA799FB04C331A708F490EA8321C08F0DF
:1062500070F8A11D0EA8FFF7D3FF002800D010E1B1
:10626000A3790CA98B708923221D5B0101300B805F
:10627000FFF7BEFF031E00D003E1A57A002D07D073
:10628000311C013309AA1943013311705170937005
:1062900017AE00211C22301C08F054F80122022104
:1062A0002A4012010A43691E8D4100216D4232705D
:1062B00009AA2A40726108AA11811023012208A8A4
:1062C0001A43027203228272023A1A4302730122B3
:1062D0001343022212AD437382731422281C08F068
:1062E00031F8A3790DAFBB70684B311C3B800AAB12
:1062F0006B6004232B810423AB81231C1C332B6193
:106300000093A088103B2A1C12970193FFF772FF9D
:10631000002800D0B5E0A3790822BB705C4B6881EF
:106320003B800BAB6B6001232B810123AB81231CD2
:1063300020332B613378311C1343043A13433370F9
:10634000231CA08814332A1C12970293FFF752FFD4
:10635000002800D095E0A3790822BB704D4B2F6038
:106360003B800AAB6B6004232B810423AB81231C8D
:1063700032332B610393337868819343043A934318
:106380003370231CA0882233311C2A1C0493FFF78E
:1063900031FF002875D1A3790822BB703E4B2F60D6
:1063A0003B800BAB6B6001232B810123AB81231C52
:1063B00036332B61337868811343043A13433370C7
:1063C000231CA0882A33311C2A1C0593FFF712FFD7
:1063D000002856D1A3790822BB70304B2F603B8038
:1063E0000AAB6B6004232B810423AB81231C48334D
:1063F0002B610693337868819343043A9343337057
:10640000231CA0883833311C2A1C0793FFF7F2FEA7
:10641000002836D1A3790822BB70214B2F603B8026
:106420000BAB6B6001232B810123AB81231C271C49
:106430004C332B61337868811343043A1343337030
:106440004037A088311C2A1C3B1CFFF7D3FE0028D4
:1064500017D1144B019A02215A60029A18709A605F
:10646000009A9F62DA6001221A74049A5A61059AAE
:106470009A61039ADA615A1CD177079A5A62069A8E
:10648000DA621FB0F0BDC04637EC010033110000E6
:1064900034110000351100003611000037110000E2
:1064A0003811000028210020F0B50D1C2249041CE1
:1064B000087887B0984209D0087C984208D0481CD8
:1064C000C67F05209E4234D1022602E0002600E06D
:1064D00001266B460020DA803301904205DACB18A2
:1064E0002F5CDB681F540130F6E7C9186B464F6814
:1064F0009A1D002138882B1CFFF77EFE011E18D143
:1065000026890E4B08309E4213D0A37A002B10D060
:1065100002AC201C102207F015FF3B88301C2380A2
:106520000123A3706B46211C0633A360E560FFF7CF
:1065300065FE07B0F0BDC04628210020FFFF000027
:1065400030B585B06B460C1C0733111C0E221C7035
:1065500001246A441480A1420FD0002908D00229E6
:1065600014D1011C1C784C310C700230C08F09E032
:106570001D78441CE577808A05E0011C1C783631C3
:106580000C70408D0021FFF737FE00E0002005B0C1
:1065900030BD73B50B88112B05D0502B07D0102BB5
:1065A00049D18B8801E001235B42038143E0CA8823
:1065B000838A0D1C041C8E1D9A4210D1338B012B33
:1065C0000DD10368002B0AD06B46002201911A708E
:1065D000B17EFFF7B5FF201C694623689847EA881B
:1065E000638D9A4210D1328B012A0DD12368002B82
:1065F0000AD06B4601951A70B17E201CFFF7A0FFF0
:10660000201C694623689847A31CEA88DB8F9A42BE
:1066100011D1338B012B0ED12368002B0BD06B468D
:10662000022201951A70B17E201CFFF789FF2368B2
:10663000201C6946984773BD73DF704740DF704781
:1066400000B5A1B000F014FB68464B4907F054FFB9
:106650006946002002F098FD00F03AFB6846474981
:1066600007F04AFF6946002002F08EFD00F044FB6F
:106670006846434907F040FF6946002002F084FD68
:1066800000F0BCFD68463F4907F036FF6946002030
:1066900002F07AFD00F072FB68463B4907F02CFFE0
:1066A0006946002002F070FD00F0A4FB68463749FF
:1066B00007F022FF6946002002F066FD00F0E6FBCD
:1066C0006846334907F018FF6946002002F05CFD78
:1066D00000F0EEFB68462F4907F00EFF69460020E8
:1066E00002F052FD00F024FC68462B4907F004FF3D
:1066F0006946002002F048FD00F048FC6846274942
:1067000007F0FAFE6946002002F03EFD00F07CFC36
:106710006846234907F0F0FE6946002002F034FD88
:1067200000F098FC68461F4907F0E6FE6946002025
:1067300002F02AFD00F0B8FC68461B4907F0DCFEB9
:106740006946002002F020FD00F0FCFC6846174975
:1067500007F0D2FE6946002002F016FDA02280213B
:10676000134BD2054905D15080218905D150002015
:1067700004F05AFC21B000BD47EC010058EC0100C8
:1067800063EC010070EC010084EC010091EC01006D
:10679000A1EC0100B6EC0100C7EC0100E1EC010046
:1067A000F0EC010002ED010014ED010027ED010005
:1067B0000C05000070B5051C0C1C161CA2B0231C97
:1067C0002A1C1D4902A807F075FE02A9002002F04C
:1067D000DBFC321C194902A807F06CFE02A900205C
:1067E00002F0D2FC231C009602A815492A1C07F0CF
:1067F00061FE14480378002B14D1134C0122211C94
:1068000003F096FF051E15D102A807F07DFE02A930
:10681000021C0E48FFF7B6FC281C211C012203F0C5
:1068200087FF07E002A807F06FFE02A9021C0748D5
:10683000FFF7A8FC22B070BD3AED010087ED010022
:1068400061ED01009833002036F301008BED01006B
:1068500000B5A1B06846094907F04EFE6946002020
:1068600002F092FC064806F0DFFFBFF34F8F054AA7
:10687000054BDA60BFF34F8FFEE7C04697ED01008E
:10688000881300000400FA0500ED00E0031C00B5C9
:106890000A1CA1B0191C0B48FFF78CFF68460A4977
:1068A00007F02AFE6946002002F06EFC074806F059
:1068B000BBFFBFF34F8F064A064BDA60BFF34F8F23
:1068C000FEE7C046EFBEADDEC1ED0100881300005B
:1068D0000400FA0500ED00E008B54D21014AFFF77C
:1068E00069FF08BDFAED010010B50478A0B0002CD6
:1068F00007D10549684607F0FFFD201C694602F0F4
:1069000043FC20B010BDC04604EE010010B5A6B097
:1069100001AC00F079FB201C0021142207F012FDCD
:10692000A023201C2382FFF787FE041E04D07321BE
:10693000094AFFF73FFF0CE0084906A807F0DCFD15
:1069400006A9201C02F020FC1D200A21FF2201F0D4
:1069500049FD26B010BDC046FAED010045EE01002C
:1069600010B5041C0088A0B0103809285BD807F0C7
:10697000BBF80517525A5A5A5A5A5A492B4968466F
:1069800007F0BAFD6946002002F0FEFB1D2001F071
:1069900011FD1D2001F0F8FCA288254B1A8042E071
:1069A00000F086FC0123224C5B422249684623808A
:1069B00007F0A2FD6946002002F0E6FB1D2001F071
:1069C000F9FC22881C4B1A8100F068FE002803D0D5
:1069D0009D211A4AFFF7EEFE00F05AFD002803D071
:1069E000A121164AFFF7E6FE00F05EFF002803D063
:1069F000A521124AFFF7DEFE002004F071FBFFF72D
:106A000085FF10E0A479002C0DD168460C4907F0F1
:106A100073FD201C04E068460A4907F06DFD002064
:106A2000694602F0B1FB20B010BDC04656EE010031
:106A3000002000206FEE010024330020FAED010059
:106A40008BEE0100B0EE010008B5002A04D0101C46
:106A5000E321024AFFF7AEFE002008BDFAED010077
:106A600010B5041C06F000FC201CFFF779FF201C69
:106A700005F030F90248211CFFF78BFD10BDC04620
:106A80002433002008B505F0B3FE08BD10B50C1C7A
:106A9000A0B02949684607F02FFD6946002002F0A2
:106AA00073FB00F005FC2478012C15D0002C02D0DB
:106AB000022C23D036E0214B21490133DA7F68468E
:106AC00007F0F8FC6946201C02F05EFB00F030FD88
:106AD0002021002826D021E0184B1A4936331A7895
:106AE000684607F0E7FC6946002002F04DFB00F025
:106AF00015FC002816D09321490010E00F4B1249D5
:106B00004C331A78684607F0D5FC6946002002F03D
:106B10003BFB00F013FE002804D02E21FF310B4A6E
:106B2000FFF748FE002004F0DBFA0020084A011CB1
:106B300006F0B4FE20B010BD65EF01002433002044
:106B400076EF0100A1EF0100CAEF0100FAED0100AC
:106B50005172010008B500F05FFD002804D04C21FF
:106B60000C4AFF31FFF726FE00F050FC002804D04D
:106B7000A821084A4900FFF71DFE00F053FE002837
:106B800004D05621034AFF31FFF714FE002004F021
:106B9000A7FA08BDFAED0100C0230249024ADB0052
:106BA000D15070473546526E00000140031C70B54D
:106BB000C0B00D1C6846191C07F07CFC1548037812
:106BC000002B1CD1144E0122311C03F0B1FD041E18
:106BD0001DD120A8114907F08FFC20A9201C02F02C
:106BE000D3FA684607F090FC6946021C281CFFF7A0
:106BF000C9FA201C311C012203F09AFD07E0684607
:106C000007F082FC6946021C281CFFF7BBFA002033
:106C100040B070BD9833002036F30100F4EF01005E
:106C200008B5FFF70DFDFFF771FE08480849FFF7AB
:106C3000BDFF06F0C9FEFFF701FD0028F9D0B52120
:106C4000044A4900FFF7B6FDF3E7C04603F0010030
:106C50003CF00100FAED010077DF704778DF704704
:106C60007ADF70477CDF704760DF704768DF70470E
:106C7000A023EF210322DB05C90030B5A1205A5023
:106C80008021C000C90519500C2104250B4C195155
:106C90000B4C1D510B4C1951043C1A518024E4003B
:106CA0001C50E320C00019501038195006495A50A2
:106CB00049195A5005495A5030BDC0465407000082
:106CC000240700002C0700000C0700001C07000030
:106CD000A023EE210322DB05C9005A5005495A5072
:106CE000A1228021D200490599508021890599501F
:106CF0007047C04674070000002307B502200093C8
:106D00000A211522154B05F0B5FA002803D03C21C5
:106D1000134AFFF74FFD13480121134A05F00AFB00
:106D2000002803D03F210E4AFFF744FD0F48012100
:106D30000F4A05F0FFFA002803D04021084AFFF768
:106D400039FD0C4801210C4A05F0F4FA002803D063
:106D50004121034AFFF72EFD07BDC0465821002000
:106D600045F00100C8350020556B0100C8320020F5
:106D700029B00100D0320020996B0100164910B5EE
:106D80000420583106F0ACFC002803D04921134AF6
:106D9000FFF710FDC122124992008858114B124C86
:106DA0000340C020000403438B501049201C0A1CE0
:106DB0000F4B06F0C9FC002803D04E21074AFFF70D
:106DC000F9FC207806F0E4FC002803D05021034AA7
:106DD000FFF7F0FC10BDC046D828002045F00100A8
:106DE00000E100E0FFFF00FFCC320020400820005F
:106DF000C1AF01001FB5012202AC23781F499343A4
:106E00002370082028314F32002304F05BFC002857
:106E100003D05F211A4AFFF7CDFC002301A80370BD
:106E2000FFF722FF002803D06721154AFFF7C2FCB5
:106E3000144804F063FC002803D06B21104AFFF7CC
:106E4000B9FC114804F064FC002803D06E210C4A00
:106E5000FFF7B0FC0420FFF7FFFE002803D07121EC
:106E6000074AFFF7A7FC0120211CFFF7FFFE0028BF
:106E700003D07421024AFFF79DFC1FBD5829002052
:106E800045F00100616A0100856A0100064A08B503
:106E900008201421783206F0EBFC002803D07B2177
:106EA000024AFFF787FC08BD5829002045F0010081
:106EB0001FB505F013FD002803D08821194AFFF7FC
:106EC00079FCA223A022DB00D205D258012392082C
:106ED00093436A466846137006F004F9002803D00D
:106EE0008E21104AFFF766FC0A2000216844062222
:106EF00007F028FA1E2301ACE380113B2372063B06
:106F000063720933A372084B084801930123211CC3
:106F1000237106F055F9002803D09D21014AFFF79F
:106F200049FC1FBD45F00100496A0100D432002030
:106F30001FB5002301A813490B220370FFF792FE2F
:106F4000002803D0AE21104AFFF734FC0020FFF7E1
:106F500085FE002803D0B1210B4AFFF72BFC00234C
:106F600002A8436050330380503343802833C380EA
:106F7000FFF776FE002803D0BB21034AFFF71AFC77
:106F800005B000BD4FF0010045F0010010B51A4CEE
:106F900092B000215022201C07F0D4F9174B6A460A
:106FA00000930123201C13716946EF3353719371D1
:106FB000D371FFF727F9002803D0DC21104AFFF72F
:106FC000F9FB4022002102A807F0BCF902A80D49F4
:106FD00004F014FB112211AB1A70452300226B44FC
:106FE00002A81A7004F03CFA002803D0EA21044AEF
:106FF000FFF7E0FB12B010BD243300208D6A0100C2
:1070000045F001005BF0010030B59FB06B46DD1D1F
:10701000062302AC00213822201C2B7007F092F9C5
:1070200002230021237010A8013B3822A370A38003
:10703000A56007F087F9201C10A904F077FD00284F
:1070400004D08221024A4900FFF7B4FB1FB030BDD3
:1070500045F0010010B588B001AC201C00211C22B5
:1070600007F070F90C4B201C6360A023DB02A360C7
:1070700005232373043B2374084B6361084BA3610E
:1070800004F0F8FD002804D08D21064A4900FFF7DE
:1070900091FB08B010BDC04655D50000E96801005D
:1070A000D968010045F0010008B503F045FF00284C
:1070B00004D02221214AFF31FFF77CFB01F04AF97D
:1070C000002804D092211D4A4900FFF773FB04F009
:1070D0008BF8002805D1942119484900174AFFF779
:1070E00069FB362002F0DCF8002804D02C21134A7A
:1070F000FF31FFF75FFB342001F0CCFF002804D004
:1071000097210E4A4900FFF755FB732002F070FCEF
:10711000002804D03221094AFF31FFF74BFB7620CB
:1071200001F016FF002804D09A21044A4900FFF715
:1071300041FB682002F0A2FB08BDC04645F00100FB
:1071400001100000FA2010B5C00006F06DFB274CBE
:10715000201C00F0D5F9002804D0A321244A4900BE
:10716000FFF728FB00F0E4F9002804D04821204A6A
:10717000FF31FFF71FFB201C00F0B8F8002804D0F7
:107180004C211B4AFF31FFF715FB00F0C7F8002820
:1071900004D0A621164A4900FFF70CFB201C00F082
:1071A000B5FA002804D0A821114A4900FFF702FBD4
:1071B00000F0C4FA002804D052210D4AFF31FFF735
:1071C000F9FA00240B4B201C1C7003F089FFA0214E
:1071D000094B09031868221C05F0D2F8A04204D01C
:1071E000AD21034A4900FFF7E5FA10BD2433002022
:1071F00045F00100C4320020C83200200122A02046
:1072000008B50D490D4BC0025A500D495850A120E8
:10721000C0001958114319501A600A4B0A491868DE
:10722000002205F0ADF8002804D0B221074A490039
:10723000FFF7C0FA08BDC0460C0500000000014081
:1072400004050000D032002055D5000045F00100B3
:1072500000B5114BA1B01A7E104B1B7E134303D116
:107260000F4B1B7E002B14D00E4B0B2118680022F5
:1072700005F086F8002804D0C2210B4A4900FFF728
:1072800099FA0A49684607F037F90020694601F083
:107290007BFF21B000BDC046D832002078330020EB
:1072A00000330020C835002045F0010065F00100E2
:1072B00000B50B4BA1B0186805F0AAF8002804D05F
:1072C000C821084A4900FFF775FA6846064907F0E1
:1072D00013F96946002001F057FF21B000BDC046F8
:1072E000C835002045F0010090F0010010B5A0B0B5
:1072F000041C0849684607F0FFF86946002001F0C1
:1073000043FF00200021044B186159611C6018766E
:1073100020B010BDFAF00100D832002030B5A1B085
:107320001D49684607F0E8F80020694601F02CFF87
:107330001A4C00222368251C36331878002322615A
:1073400063610123034023764009042813D806F023
:10735000CBFB03050B0D0F00114800E01148FEF7B1
:10736000EBFEA860E9600CE00F48F8E70F48F6E78D
:10737000FA208000F3E7FA208000FEF7DDFEA0602F
:10738000E16068460A4907F0B7F86946002001F055
:10739000FBFE002021B030BD07F10100D8320020F3
:1073A0008096980040420F00A08601001027000040
:1073B0002AF1010010B5A2B001A801F01FFE041CC3
:1073C00002A8002C07D00E4907F096F802A9002069
:1073D00001F0DAFE10E0019A0A4907F06BF802A901
:1073E000201C01F0D1FE084B01A9186804220123DA
:1073F000FFF75AF8FEF7A2FE201C22B010BDC046CF
:1074000046F101006BF10100D832002030B51D4B70
:10741000A1B01A7E002A01D100242FE001201C69AE
:107420005D69002100196941DA68186159618A4271
:1074300007D802D19A68824203D80020002118613F
:1074400059611A69012AE7D15A69002AE4D10E4923
:107450000C78002C0DD1FFF7ADFF051E0ED00B49A7
:10746000684607F049F8201C694601F08DFE2C1C87
:1074700004E000200021141C18615961201C21B077
:1074800030BDC046D8320020C43200207AF101005D
:1074900070B5184EA0B03068F0210122FFF750F807
:1074A000051E09D01449684607F026F800206946F1
:1074B00001F06AFE281C1BE0FFF730FF041E0ED10E
:1074C0006A46FF236946137053709370D370306817
:1074D0000422FE3BFEF7E8FFFEF730FE07E0074917
:1074E000684607F009F8281C694601F04DFE201C8B
:1074F00020B070BDD832002098F10100C5F1010024
:1075000010B5A0B0041C0849684606F0F5FF6946AE
:10751000002001F039FE00200021044B1861596160
:107520001C60187620B010BDE3F101007833002014
:1075300030B5A1B01B49684606F0DEFF0020694661
:1075400001F022FE184C00222368251C0133D87F4D
:10755000002322616361012303402376400903284D
:107560000FD806F0C1FA02040A0C104800E01048D7
:10757000FEF7E2FDA860E96009E00E48F8E70E4872
:10758000F6E7FA20C000FEF7D7FDA060E16068468C
:107590000A4906F0B1FF6946002001F0F5FD002020
:1075A00021B030BDF2F101007833002080969800C0
:1075B00040420F00A08601001027000021F20100C8
:1075C00010B5A2B001A801F0FDFC041C02A8002C1B
:1075D00007D00E4906F090FF02A9002001F0D4FD6B
:1075E00010E0019A0A4906F065FF02A9201C01F08B
:1075F000CBFD084B01A918680422231CFEF754FF99
:10760000FEF79CFD201C22B010BDC0463FF20100D9
:1076100069F201007833002030B51D4BA1B01A7E0D
:10762000002A01D100242FE001201C695D6900219E
:1076300000196941DA68186159618A4207D802D194
:107640009A68824203D800200021186159611A69A2
:10765000012AE7D15A69002AE4D10E490C78002C9E
:107660000DD1FFF7ADFF051E0ED00B49684606F0A1
:1076700043FF201C694601F087FD2C1C04E000201C
:107680000021141C18615961201C21B030BDC04676
:1076900078330020C43200207AF2010070B5184E11
:1076A000A0B03068F0210022FEF74AFF051E09D085
:1076B0001449684606F020FF0020694601F064FD89
:1076C000281C1BE0FFF734FF041E0ED16A46FF237F
:1076D0006946137053709370D37030680422231C72
:1076E000FEF7E2FEFEF72AFD07E00749684606F0CE
:1076F00003FF281C694601F047FD201C20B070BD27
:10770000783300209AF20100C9F2010010B5A0B050
:10771000041C0849684606F0EFFE6946002001F0A7
:1077200033FD00200021044B186159611C6018765C
:1077300020B010BDE9F201000033002030B5A1B047
:107740001B49684606F0D8FE0020694601F01CFD82
:10775000184C00222368251C4C3318780023226122
:107760006361012303402376400903280FD806F004
:10777000BBF902040A0C104800E01048FEF7DCFCDC
:10778000A860E96009E00E48F8E70E48F6E7FA203D
:10779000C000FEF7D1FCA060E16068460A4906F02F
:1077A000ABFE6946002001F0EFFC002021B030BDA7
:1077B000F7F20100003300208096980040420F004D
:1077C000A0860100102700001AF3010010B5A2B036
:1077D00001A801F02FFC041C02A8002C07D00E49C0
:1077E00006F08AFE02A9002001F0CEFC10E0019A0A
:1077F0000A4906F05FFE02A9201C01F0C5FC084BF7
:1078000001A9186804220223FEF74EFEFEF796FC3B
:10781000201C22B010BDC04637F301005DF301000B
:107820000033002030B51D4BA1B01A7E002A01D1D3
:1078300000242FE001201C695D69002100196941C5
:10784000DA68186159618A4207D802D19A6882427F
:1078500003D800200021186159611A69012AE7D173
:107860005A69002AE4D10E490C78002C0DD1FFF79B
:10787000ADFF051E0ED00B49684606F03DFE201CEC
:10788000694601F081FC2C1C04E000200021141C3E
:1078900018615961201C21B030BDC0460033002062
:1078A000C43200206CF3010070B5184EA0B03068EF
:1078B000F0210222FEF744FE051E09D01449684655
:1078C00006F01AFE0020694601F05EFC281C1BE051
:1078D000FFF734FF041E0ED16A46FF23694613707A
:1078E00053709370D37030680422FD3BFEF7DCFDCB
:1078F000FEF724FC07E00749684606F0FDFD281C5A
:10790000694601F041FC201C20B070BD003300200E
:107910008BF30100B9F301000123C046C046C04605
:10792000C046C046C046C046C046C046C046C04627
:10793000C046C046C046013B002BEED17047000058
:10794000002008B5011C021C00F086FD064BEC224D
:107950001860A0230321DB05D20099508021A122C9
:107960004904D200995008BD2C2B002080B5021C80
:107970006846CB1DDB08DB00C31A00AF9D46044BF5
:1079800089B218686B4600F0C3FDBD4680BDC04695
:107990002C2B0020B0B5031C6846CA1DD208D200AB
:1079A000821A00AF95460C1C68466C44A04203D076
:1079B000FF2505700130F9E7034889B2006800F03F
:1079C000A7FDBD46B0BDC0462C2B002037B5094CE5
:1079D0006B46DD1D281C0121FFF7DCFF2B78FF2BF8
:1079E00004D0013CFFF798FF002CF1D1601E8441C8
:1079F000E0B23EBD20A1070007B5A1238021A0224F
:107A00004904DB00D205D1506B460121D81DFFF798
:107A1000C1FF07BD13B5A0228021094BD20549043F
:107A2000D1506B460121D81DFFF7B4FFFFF7CEFF01
:107A3000041E02D1FFF7E0FF00E00124201C16BD68
:107A40000C050000F7B5071C0E1C0F4D01AC201CE7
:107A50000121FFF79FFF2378FF2B0DD02378002013
:107A6000FE2B0FD1381C311CFFF794FF201C022184
:107A7000FFF790FF012005E0013DFFF74DFF002DCE
:107A8000E4D1EBE7FEBDC046A0860100F7B5071CB8
:107A90000E1CFFF79BFF041E1CD001AD281C01210A
:107AA0002E700124FFF762FFFD2E13D08021381CB9
:107AB0008900FFF75BFF281C0221FFF76BFF211CE9
:107AC000281CFFF767FF1F232C781C40053C6342EE
:107AD0005C41E4B2201CFEBD30B543B285B0041C4D
:107AE0000D1C002B07DA37200021FFF7F5FF0128D6
:107AF0003AD87F231C400C2C0ED1402302A82343EC
:107B000003702B0E43702B0C83702B0AC37005710E
:107B10009523002C0FD00AE0002CEED0FFF76CFF6D
:107B2000FFF778FF031CFF20002B1DD0E5E787231C
:107B3000082C00D0863B06214371FFF717FF6B46E8
:107B4000DD1D0C2C03D1281C0121FFF723FF0A2483
:107B5000281C0121FFF71EFF287843B2002B03DA0F
:107B6000013CE4B2002CF3D105B030BD45DF7047D5
:107B700047DF70474EDF704750DF704710B50C4B42
:107B8000041C1B6899420AD800208C420FD3094A72
:107B90001268D31A59188C428041404207E0CB1A30
:107BA00001209C4203D300238C425B41D8B210BD1C
:107BB00004200020302B002010B5041E0F2C06D806
:107BC000C0B2FFF7D5FF0120A040FFF7CFFF10BDE7
:107BD000012230B5151CA123A0248D40DB00E40553
:107BE000E550094B8000C018A223084CDB00C450AC
:107BF000C046C046C0460260054A09021143C15052
:107C0000C046C046C04630BD00600040031F0100B2
:107C100003001300F7B50378041C013B032B00D9C4
:107C2000D7E0031C34331878052800D9D1E0A2220C
:107C3000694FD200694B05F057FF0305070C10127E
:107C4000092107E009210BE00621B950FA22920030
:107C500008E00321B950642204E0012100E0002182
:107C6000B950FF221A60A222D200BA585C49895C3E
:107C70005C4A116022785A6000230192019A934273
:107C800017D2E118554D4A78980008354251A02581
:107C90000326C132FF329200ED05565100254F4AAE
:107CA0003031183285504D4A0978283299540133C1
:107CB000E4E7A12200230125D200FD60BB50474A22
:107CC000802611680420D162A922D200B9509446BE
:107CD000454AB600BB50454AB8511365D364936416
:107CE0005364019A022A13D9414AD560A125ED00B7
:107CF0005351654651513C4953503E4990510B6593
:107D0000CB648B644B64A2233349DB00C958D15048
:107D1000019B002B2ED0314D374B28352E7837491B
:107D2000B600F618231C28331878321CFFF744FFDE
:107D3000231C29331878321C3149FFF73DFF0023FB
:107D4000264E30363370019B012B13D06D782A4BB1
:107D5000AD00ED18231C2A3318782A492A1CFFF796
:107D60002BFF231C2B33187825492A1CFFF724FFEF
:107D70000023737002252C34019B9D4218D2174BAF
:107D800020782833EE5C1C4BB600F6181E4B321CD4
:107D9000E9188900FFF710FF6078321C1B49FFF7D4
:107DA0000BFF00220D4B02343033EA540135E3E778
:107DB0001748FFF7DFFE0123164A00201360074A29
:107DC0003B605268022A06D9134A1360084A1360BE
:107DD00001E001204042FEBD00A00040302B002009
:107DE000D8F301000420002004050000FCA000409E
:107DF00000900040FC9000400060004040A1004026
:107E000048A1004044A100404E2400104891004089
:107E1000E98001000CAC00400C9C00401FB50B4BEE
:107E200082009A185163012230331A5400236A46A3
:107E300013701371FA2202926A465371044B68461A
:107E40000393FFF799FE05B000BDC046302B00201C
:107E5000A086010070B517490123174A002806D0F3
:107E60000B605268022A24D9144A136021E04B6047
:107E70005068022801D911494B600023834218D071
:107E8000111C2831595C0E4D45310E4CFF318900D3
:107E90000D51111C9C00083165580121A026A940F4
:107EA000094DF6057151111C00251831655001333B
:107EB000E4E770BD00A00040302B0020009000409F
:107EC000001F0300006000400C050000A922F0B56F
:107ED0007E4C7F49E36AD20023608B50606885B096
:107EE0000291022801D97B498B5000236364666CA0
:107EF00063689E4200D3E6E0231C30339A5D002A7B
:107F000000D1DDE00022B50065199A556B6B019335
:107F1000934212D1231C28339B5D6F4945336F4A2E
:107F2000FF339B0099500123AA68A02193406C4A1B
:107F3000C9058B50019BAB61C2E0019B21688B425C
:107F400012D3231C28339B5D634845336349FF33B9
:107F50009B0058500123A968A0208B40A121C00597
:107F6000C9004350AA61ABE0019BA364012E54D821
:107F7000331C5133FF33029A9B00D358544F039361
:107F8000E364AB69002B18D1231C28339E5DA968DC
:107F9000301CFFF71DFE0123524AAB61FB64BA5847
:107FA00001998A4231D94D4AB600B3502DE0785933
:107FB0000199FFF7E3FD00280CD10123029A494DF6
:107FC000D364029B03995859414FFFF7D7FD00280E
:107FD000F3D0ECE77B59039A934203D37B59019A80
:107FE00093420BD33F4A029B9B58039A93420CD275
:107FF000374A3C4BD358019A934206D3231C0121A4
:1080000028339B5D354A9B009950636C029A51332B
:10801000FF33A16C9B00D15052E0331C4F332D4FE6
:10802000FF339B00DB590393E364AB69002B19D149
:10803000231C28339E5DA968301CFFF7C9FD01236E
:10804000284AAB61FB64BA5801998A4232D9234A63
:10805000B600B3502EE01F4B01995859FFF78EFD23
:1080600000280BD101231B4A1E4DD364131C039916
:108070005859FFF783FD0028F4D0ECE7154B039A1D
:108080005B59934204D3134B019A5B5993420AD331
:10809000144B039AFB5893420CD20E4A114BD358FF
:1080A000019A934206D3231C012128339B5D0B4A7E
:1080B0009B009950636CA26C4F33FF339B00FA50C6
:1080C000636C013312E705B0F0BDC046302B0020D1
:1080D00000A0004000900040001F0300006000402E
:1080E0000C0500004C050000064B02211A1C503202
:1080F00010B511701C1C002801D1FFF7E7FE201CF1
:10810000503010BD302B0020002170B500781F4B7F
:10811000CAB25C1865781C1C854200D1101C013164
:108120000429F4D1421CD100635C012B08D16118F1
:108130004B78002B01D1CB7800E000234B701EE080
:10814000022B21D163189D785978002D06D0DE7856
:108150000431B14208DB5E70002103E0042903DC36
:1081600001215D7099700AE0D300E3185978042664
:10817000002D00D1F836D3007118E3185970D200E1
:10818000A3185978FFF74AFE70BDC04608200020AA
:10819000F8B50023234CDDB2E21852785F1C82420E
:1081A0003CD1061C0020FFF755FEFB00E318586881
:1081B00004F02EF9032D0DD0691C63185B78651946
:1081C0006B704B1CCA00DB00A218E31821CB21C244
:1081D000CDB2EFE7FF2300250121201C2371631C92
:1081E000DD77A31CDD77E31CD977231DDD770E4AED
:1081F000243004F09FF82378201C013B2370FFF704
:1082000009FD2B1C221C3832995CB14202D1FF219E
:10821000D15406E00133042BF4D102E03B1E042BC1
:10822000B8D1F8BD0820002009810100F0B5051C77
:10823000A5B0019103921E1CFFF7AAFF2B1CA022E0
:108240000321C133FF33D2059B0099500123AB407A
:10825000002739495350394C7A1CE3195B78029254
:10826000FF2B62D1012E04D13220019B43430193A5
:1082700008E06420019B5843039B9908490005F0DE
:10828000CDFC01900020FFF7E5FD6A46E7197D70FF
:108290002378127B01332370029BDB00E654E31842
:1082A000DA700023221C3832995CDFB2FF2901D139
:1082B000D55403E00133042BF4D11F1C201CFFF71D
:1082C000A9FC002804D0281CFFF762FF1C4C30E0FA
:1082D000029B0199DB00E318CA0302934B0C0021B7
:1082E0001848383480185941174A002305F088FD92
:1082F000029B011CE219586804F042F8041EE2D106
:108300002B1C1C3B012B02D8012002F0E9FE0120AE
:10831000FFF7A0FD04A80D492A1C331C06F0CAF87B
:1083200004A9002000F030FF03E0029F042F92D147
:10833000074C201C25B0F0BD0C05000008200020D3
:1083400005600000DC050000B80B0000E2F301004E
:108350000360000038B5094B1D1C2C331C1C0C3568
:10836000281C0121064A03F0E5FF002803D1083547
:10837000A542F5D100E0034838BDC04608200020E2
:10838000098101000460000010B5041CFFF700FF24
:10839000012002F0A5FE231CA02203210120C133ED
:1083A000FF33D2059B009950A123A040DB00D050A1
:1083B000002010BD10B5041CFFF7EAFE002002F0FB
:1083C0008FFE0120231CA0220321A040C133FF33D4
:1083D000D2059B009950024BD050002010BDC046E2
:1083E0000C05000070B5041C0E1C151CFFF7D0FE18
:1083F000231CA0220321C133FF33D2059B009950D7
:108400000123181CA04004495050311C2A1C201C78
:10841000FFF70CFF70BDC0460C05000070B5041CD2
:108420000E1C151CFFF7B4FE231CA0220321C13330
:10843000FF33D2059B0099500123A3400549201C1E
:1084400053500A2171432A1CC9B20223FFF7EEFEE2
:1084500070BDC0460C050000A02370B5DB050324E9
:10846000234D002830D1234E9C510C3E9C51224E6E
:108470009851EC20C0001C50A12419261F48E4008C
:108480000651033E4651A2250136ED004651802596
:108490006D041D5180241A4B0139E405C9B2C45042
:1084A0000023022901D8174B5B5C1749002A01D031
:1084B000012213434350031C0022FC33DA60A02343
:1084C0000132DB00C25070BDEF200026C0001C50FE
:1084D0001C501E50A1261C501E240C48F60084512E
:1084E0004451A225ED0044518024E4059C51D1E77C
:1084F0000C050000640700005C070000003000402D
:108500002405000001F40100540500000040004073
:10851000F7B51D4C009101931821A04200D00631FF
:108520000125A0248D401949E405655000210E1C49
:10853000009B8CB29C4220D2575C154C0751071C03
:10854000FC37FC68002C0BD0C02300249B019E420A
:108550000BD1A123A022DB00D205D550201C12E0B4
:108560000C4CA642F0D80136E9E7FC60A324E400F5
:108570000459019B5C540131DAE7A123A0220120B8
:10858000DB00D205D550FEBD003000400C050000D8
:108590001C050000FF2F0000F0B585B000AF7A6029
:1085A000F973002B0CD101220F334000F918C0B22F
:1085B000131C02F053FE012358404042C0B224E095
:1085C00069466C465B00B960D91DC908C900611ACB
:1085D0008D460024FE7B9C420BDA6508AA190A55D9
:1085E0000A1994467A680234555D6246E4B25570C1
:1085F000F1E74000DAB2C0B2012302F02FFE0123FE
:108600005840BB6840429D46C0B2BD4640B205B02E
:10861000F0BD08B505F008F908BDF8B5161C002234
:108620001D1C131C041CFFF7B7FF00281DD10127D8
:1086300064003C433B1CE0B2311C2A1C02F00EFEDD
:10864000042378404042C0B2C046C046C046C0463F
:10865000C046C046C046C046C046C046C046C046EA
:10866000C046C046013B002BEED140B2F8BD000031
:10867000002373B501AC23706370A3700C4B1A68B0
:108680008123002A12D0131C2933051C566B18783D
:10869000221C0323FA21B04763781A0123781B03B5
:1086A0001343A278120913432B60031C58B276BD02
:1086B000882B002010B50D4B02111968C0100C88D2
:1086C000121B6400001B02240B5F5843131C53430E
:1086D00004240A5F1B135343C0129B13C3180520C5
:1086E0005843803000124B6210BDC046882B0020DA
:1086F000002373B501AC23706370A3700C4B1A6830
:108700008123002A12D0131C2933051C566B1878BC
:10871000221C0323F721B04763781A0123781B0337
:108720001343A278120913432B60031C58B276BD81
:10873000882B002070B5274B274A1C684042636A8B
:108740005B109B18991049431025625FCE12564367
:108750000E25625F49135A43550072190A26A55F18
:10876000921069430826A55FC9106B435B10CB18B4
:1087700080219B1409025B18E18859430C25635F33
:10878000C9131B04D2181213144B801A5843144BEC
:108790000025C01805D4A9421AD0400005F0AEF952
:1087A00004E0A94214D005F0A9F94000C3085B43D6
:1087B0001621625E5B0B53431421625E85085543AC
:1087C0001B136D131221625E5B199B181B11C518D8
:1087D000281C70BD882B00200006FFFF350C000010
:1087E000000050C3002373B501AC237063700B4BC2
:1087F0001A688123002A0ED0131C2933051C566BDE
:108800001878221C0223FD21B047237862781B02CE
:1088100013432B60031C58B276BDC046882B002042
:10882000F0B51D4B1D4A1D6886036B6A1F219F18FA
:108830001E23EA5E287F1205B41A2023EA5E8023F5
:108840007A43DB01A21AD218EB1C595680237843D5
:108850001B02C012C01880237943891241439B0335
:108860008912C9181A23EC5E802361439B01CB183F
:108870009B13D2135A43D3135B43287EDB1143432C
:108880001B11D31AD843C822C01703405205934284
:1088900000DD131C1813F0BD882B002000D4FEFF50
:1088A000F0B589B001AC201C00211A2205F04AFD68
:1088B0003F4D81202B68002B00D175E01A1C293216
:1088C0005E6B10788821221C1A23B04762782178C9
:1088D0002B6812020A431A800322A256A1781202C0
:1088E0000A435A800522A256217912020A439A802D
:1088F000E279A17912020A43DA800922A256217A8A
:1089000012020A431A810B22A256A17A12020A43CA
:108910005A810D22A256217B12020A439A810F220C
:10892000A256A17B12020A43DA811122A256217CAF
:1089300012020A431A821322A256A17C12020A438F
:108940005A821522A256217D12020A439A821722C8
:10895000A256A17D12020A43DA82627E061C1A76B2
:108960001A1C293210785F6BE121221C0723B847BB
:108970000122A256217812020A4303212B68801992
:108980005A83A278C0B21A77615622790D010F215D
:1089900011402943D98305216156120909010A436F
:1089A0001A84A2790333DA7740B209B0F0BDC04629
:1089B000882B002073B56A46D51D00222A70021C40
:1089C000031C094E293230605C6BD02110780123E2
:1089D0002A1CA04733682A7828331A70041CFFF732
:1089E0005FFF001940B276BD882B002073B56B463F
:1089F000DD1D00232B700A4B1A688123002A0DD03D
:108A0000131C2933041C566B18782A1C0123F421EB
:108A1000B04703232A7813402370031C58B276BD55
:108A2000882B002013B56B46DA1DB6231370074B55
:108A300081201B68002B06D0191C293108781C6B7B
:108A4000E0210123A04740B216BDC046882B00207C
:108A500038B5084B041C1D688120002D07D0281C48
:108A60002930131C00780A1C211C2C6BA04740B233
:108A700038BDC046882B002038B5084B041C1D6843
:108A80008120002D07D0281C2930131C00780A1CD7
:108A9000211C6C6BA04740B238BDC046882B00201B
:108AA0000023F0B5364C85B002AA571D5371961DB0
:108AB0009371D371226803AD01902B7081209A428B
:108AC0005BD0019B2E32590113781F221A400B1CD8
:108AD000381C13432B70FFF789FF3B78002B1ED007
:108AE000FFF7A0FF236803209B6B9847236802AA27
:108AF0002F331B78D11DD371F5200122FFF7A8FF7A
:108B00002368311C2D331B780122F2203370FFF7CC
:108B10009FFF291C0122F420FFF79AFF08E0236839
:108B2000F4211A1C293210781E6B2A1C0123B0472D
:108B30006A46236812792A331A70291C0122F4200C
:108B4000FFF79AFF23682A782E33061C1A70291C17
:108B50000122F220FFF790FF23682A782D33801935
:108B60001A70C6B20122F520291CFFF785FF236881
:108B70002A7830182F331A70C0B240B205B0F0BD59
:108B8000882B00200023F0B5374C85B002AA571D72
:108B90005371961D9371D371226803AD01902B70B0
:108BA00081209A425CD0019B65389B000340191CD0
:108BB0002E32137883430B43381C2B70FFF716FFBC
:108BC0003B78002B1ED0FFF72DFF236803209B6B03
:108BD0009847236802AA2F331B78D11DD371F52043
:108BE0000122FFF735FF2368311C2D331B7801224A
:108BF000F2203370FFF72CFF291C0122F420FFF72D
:108C000027FF08E02368F4211A1C293210781E6B14
:108C10002A1C0123B0476A46236812792B331A7045
:108C2000291C0122F420FFF727FF23682A782E331E
:108C3000061C1A70291C0122F220FFF71DFF236871
:108C40002A782D3380191A70C6B20122F520291C0A
:108C5000FFF712FF23682A7830182F331A70C0B23A
:108C600040B205B0F0BDC046882B00200023F0B50F
:108C7000434C85B002AA551D9371D71DD37122684C
:108C800003AE009033702B7081209A4275D02D3244
:108C9000137800997A38014083430B43381C3370B2
:108CA000FFF7A4FE3B780190002B27D0FFF7BAFE18
:108CB0002368071C9B6B03209847236802AA2F3365
:108CC0001B78911D9371F5200122FFF7C1FE019BD6
:108CD000311C3F180122F220FF18FFF7B9FE23686C
:108CE000FFB22E331B783F18291CF42001222B7071
:108CF000FFF7AEFEFFB23F18FEB216E02368F22186
:108D00001A1C293210781F6B321C0123B8472368C4
:108D1000061C2E331B78F420291C01222B70FFF730
:108D200097FE019B3618F618F6B26A46144C127874
:108D3000236803AD2C331A70291C0122F420FFF79D
:108D40009BFE23682A782E331A708619291C01226B
:108D5000F220FFF791FE23682A78F6B22D333018FF
:108D60001A70C6B20122F520291CFFF785FE236880
:108D70002A7830182F331A70C0B240B205B0F0BD57
:108D8000882B0020F7B56B466A46DE1C0023334C67
:108D900053719371D51D226801AF33703B702B70F6
:108DA0008133002A57D07D33032854D82E321378CC
:108DB0000322934318433070381CFFF717FE3B78AB
:108DC000002B1FD0FFF72EFE236803209B6B9847D4
:108DD0006A462368911D2F331B78F5209371012279
:108DE000FFF736FE6A462368511D2D331B78F220AB
:108DF00053710122FFF72CFE311C0122F420FFF7F2
:108E000027FE08E02368F4211A1C293210781F6B12
:108E1000321C0123B847291C0122F420FFF72CFE45
:108E200023682A782E331A70061C291C0122F2208E
:108E3000FFF722FE23682A782D331A708619291C21
:108E40000122F520FFF718FE2268F6B229783318C0
:108E50002F321170DBB258B2FEBDC046882B002005
:108E60000023F0B5394D85B002AA53719371D371C7
:108E7000971DD61D2A6803AC23708133002A62D067
:108E80001C212F32137880008B4308401843207038
:108E9000381CFFF7ABFD3B780190002B27D0FFF784
:108EA000C1FD2B68071C9B6B03209847211C0122E6
:108EB000F520FFF7CDFD019B3F18FF182B68311CF3
:108EC0002D331B780122F2203370FFF7C1FD2B6890
:108ED00002AA2E331B78FFB23F185371511DF420A4
:108EE0000122FFF7B5FDFFB23F18FFB209E02B6882
:108EF000F5211A1C293210781D6B221C0123A8476A
:108F0000071C211C0122F420FFF7B6FD0F4D22782B
:108F10002B68C7192E331A70211C0122F220FFF78B
:108F2000ABFD2B6822782D33FFB21A703F18211C3D
:108F30000122F520FFF7A0FD2A68FFB221783B1837
:108F40002F321170DBB258B205B0F0BD882B002073
:108F500008B5174A174B1A63174A5A631A1C293265
:108F60001070164A181C9A63FFF724FD002801D0E0
:108F700013481BE00320FFF705FF0028F8D1FFF797
:108F80006FFF0028F4D10130FFF770FE0028EFD109
:108F90000130FFF7F7FD0028EAD10130FFF780FD2F
:108FA0000028E5D1FFF7EEFE0028E1D108BDC0465C
:108FB00099850100CC3500201B8601001386010035
:108FC00003200000002313B5041C036001A80193D3
:108FD000FFF74EFB00280AD10198FFF76BFB2060DA
:108FE0000120FFF7CFFE002802D0024800E002482F
:108FF00016BDC0460120000002200000002313B56A
:10900000041C036001A80193FFF772FB00280AD13A
:109010000198FFF78FFB20600120FFF7B3FE0028C7
:1090200002D0024800E0024816BDC0460120000000
:1090300002200000002313B5041C036001A8019363
:10904000FFF7D0FB00280AD10198FFF7E9FB206069
:109050000120FFF797FE002802D0024800E00248F6
:1090600016BDC046012000000220000008B5031C08
:109070000A1C06490878191C012302F0EFF80028A1
:1090800001D0002000E0024808BDC0468C2B002023
:109090000130000007B5074B400018706B46D81D23
:1090A000822301210370FFF7E1FF002800D002486E
:1090B0000EBDC0468C2B002003300000F0B5161CFE
:1090C0001822071C424303202E4B85B09A18D36AFE
:1090D0000391184002280DD0111C2031936A496871
:1090E0005B1A013B01D5126A9B189E4202DD0028E3
:1090F00045D01E1C0020864241D001901822101C31
:109100007843204B1818011C2031846A4968641A7E
:10911000191C013C01D5036AE4187A438A18101C13
:10912000136A20300293536A029AD31A9C4201DBDD
:109130004468141BB44200DD341C18231D1C781C29
:1091400043437D43CB184D196A6A586803998018C8
:10915000221C05F0EEF8019B361B1B190193039BA3
:10916000029A1B1903936B6A20351C196C606B689B
:10917000934201D100236B60002EBFD1019805B04E
:10918000F0BDC0464420002010B50A1E06D00B1CBE
:109190001C785A1A002C01D00133F9E7FFF78EFF33
:1091A00010BD0000B0B5131C6C460833DB08DB00B3
:1091B000E31A00AF9D466C4600232070D8B290425F
:1091C00004D2CD5CE01845700133F7E7064B211C53
:1091D0001878012302F042F8002801D0002000E0B6
:1091E0000248BD46B0BDC0469E2F00200140000091
:1091F00073B56B46141C0122154ED9710733051C3B
:10920000191C3078131C02F029F800281BD0012308
:109210003078291C1843221C02F020F8002814D0B2
:109220000423C046C046C046C046C046C046C046ED
:10923000C046C046C046C046C046C046C046013BC8
:10924000181EEED102E0034800E0034876BDC04698
:109250009E2F0020014000000240000013B501AC29
:10926000201C0C210222FFF7C3FF002801D00B486D
:1092700013E0202263780C209343211C1E3A637074
:10928000FFF790FF0028F2D120706070211C1A3087
:109290000222FFF787FF0028E9D116BD0440000035
:1092A00037B5234B400001AC18701821201C022256
:1092B000FFF79EFF002801D01E4837E0201C082140
:1092C0000222FFF795FF0028F6D120706070211C64
:1092D00006300222FFF766FF0028EDD12070607093
:1092E000211C0A300222FFF75DFF0028E4D17C2315
:1092F000FF251830211C022223706570FFF752FFF2
:109300000028D9D197230C302370211C3B3B02222B
:109310006370FFF747FF0028CED12070211C143066
:1093200002226570FFF73EFF0028C5D13EBDC04652
:109330009E2F00200340000008B504210222FFF701
:1093400057FF002800D0014808BDC0460540000076
:1093500037B501AD041C1A21281C0222FFF748FF73
:1093600000281CD101222B78134201D0207013E079
:1093700002210B420AD10422134201D021700BE0DA
:10938000190701D5032306E0D90601D5227003E0B1
:109390009B0601D505232370FFF760FF00E001481D
:1093A0003EBDC04606400000F7B56B46141C0122C6
:1093B000184F0D1CD91D08703878131C4000C0B21E
:1093C00001F04CFF061E01D115210CE00123387875
:1093D000E2B240001843C0B2291C01F03FFF042351
:1093E000061E04D11B210C4AFDF7E4F910E0C0462B
:1093F000C046C046C046C046C046C046C046C0463D
:10940000C046C046C046C046C046013B002BEED118
:10941000301CFEBD083600200DF4010008B5012205
:10942000FFF7C2FF08BD002313B501AC211C0222C7
:1094300023706370FFF7B8FF207863780002181874
:1094400000B216BD98B5131C6C460833DB08DB0070
:10945000E31A00AF18709D460020904204DA0130F4
:10946000441E0C5D1C54F8E7094901320878D2B259
:109470004000191CC0B2012301F0F0FE041E03D10C
:109480005F21044AFDF796F9BD46201C98BDC046F1
:10949000083600200DF4010007B56B46D97107337B
:1094A000191C0122FFF7CEFF0EBDF0B585B0019368
:1094B00002ABDD1D00230C1C291C061C171C2B7085
:1094C000FFF7ACFF002810D00121B940E41B019B3D
:1094D00001340139A340A1402F78DCB28F432140F1
:1094E0003943301C2970FFF7D7FF05B0F0BD0322C8
:1094F000504308B525300B1CC0B206210432FFF7DB
:10950000D4FF08BD08B50B1C032148432730C0B267
:109510000422FFF7CAFF08BD08B5131C0122FFF79C
:10952000C4FF08BD07B50A0A01AB1A7059700222C0
:10953000191CFFF787FF07BD08B56B200721012223
:10954000FFF7EAFF08BD08B5021C03216B20FFF7F7
:10955000E3FF08BD08B50221031C03226B20FFF7BF
:10956000A4FF08BD08B5021C05216C20FFF7D4FF3D
:1095700008BD08B5021C04216C20FFF7CDFF08BD13
:1095800008B5021C03216C20FFF7C6FF08BD08B513
:10959000021C02216C20FFF7BFFF08BD08B5021CAA
:1095A00001216C20FFF7B8FF08BD08B5021C00219F
:1095B0006C20FFF7B1FF08BD08B5011C1920FFF7AB
:1095C0006BFF08BD08B50221031C03221A20FFF718
:1095D0006CFF08BD08B50221031C03221D20FFF704
:1095E00064FF08BD08B50421031C02221B20FFF7FD
:1095F0005CFF08BD08B50421031C02221C20FFF7F4
:1096000054FF08BD08B5011C1320FFF78BFF08BDF0
:1096100008B5011C1520FFF785FF08BD08B5011C22
:109620001720FFF77FFF08BD70B50D1C141C061C2A
:10963000FFF7E8FF281CFFF7EBFF201CFFF7EEFF0A
:10964000024B5E809D80DC8070BDC046A02F002054
:1096500010B5041C7720FFF7E6FE0123011C19401A
:109660006300002C02DA044A1A43131C0B4319B29C
:109670007720FFF757FF10BD0080FFFF10B5041CD7
:109680007A20FFF7D0FE0123011C19406300002C53
:1096900002DA044A1A43131C0B4319B27A20FFF76B
:1096A00041FF10BD0080FFFF10B5041C7D20FFF7B7
:1096B000BAFE0123011C19406300002C02DA044A9F
:1096C0001A43131C0B4319B27D20FFF72BFF10BD6B
:1096D0000080FFFF70B50D1C141C061CFFF7B8FFBF
:1096E000281CFFF7CBFF201CFFF7DEFF024B1E817B
:1096F0005D819C8170BDC046A02F002010B5041C68
:109700000621221C2320FFF707FF221C052123200E
:10971000FFF702FF0421221C2320FFF7FDFE10BDEE
:1097200008B5021C03212320FFF7F6FE08BD08B58B
:109730004A1E9141031CCAB26720191CFFF7ECFEB8
:1097400008BD08B50421031C05223420FFF7ADFE37
:1097500008BD000008B5012207212520FFF7DCFE27
:1097600000200C21FFF7C3FE03212620FFF794FE03
:10977000012207212720FFF7CFFE00200621FFF757
:10978000C1FE01200C21FFF7B2FE0A212920FFF7BC
:1097900083FE0120011CFFF7B5FE012207212A20CC
:1097A000FFF7BAFE11216420FFF776FE064B18780A
:1097B000FFF7C7FF00200121FFF7B9FF0120011CBF
:1097C000FFF7B5FF08BDC046A02F002008B5021C5A
:1097D00000213820FFF7A0FE08BD08B5021C0621B5
:1097E0006A20FFF799FE08BD08B5021C02216A2015
:1097F000FFF792FE08BD000010B5094CE37BA07B8B
:109800001843237C1843FFF7E1FF0120FFF7ECFF2B
:10981000E37BA07B1843237C1843FFF7DEFF10BDDA
:10982000A02F002038B5051E01D000F075F8114BAF
:109830001878FFF7C1FE104C2078FFF782FF002058
:10984000FFF7C4FF0020FFF7C8FF0120FFF7CCFFA0
:10985000E57301246C40201CFFF784FE201CFFF7F9
:1098600088FE201CFFF78CFE281CFFF759FFFFF72E
:10987000C3FF38BDBC200020A02F0020234B10B513
:109880001870FFF759FE142003F0CEFF0120FFF7F8
:1098900061FE0120FFF7A6FE0120FFF7ABFE1C4C86
:1098A0000823E05E0A23E15E0C23E25EFFF712FF6D
:1098B0000423E15E0623E25E0223E05EFFF7B4FECE
:1098C0000320FFF77FFE0320FFF784FE114B18787B
:1098D000FFF772FEFFF73EFF0120FFF734FE002086
:1098E000FFF7A0FF002000F02BF80020FFF76EFF2D
:1098F0000020FFF772FF0120FFF776FFFFF77CFFE4
:10990000062101226B20FFF707FE10BD083600205C
:10991000A02F0020BC20002008B5074BDA7B002ACE
:1099200009D19A7B002A06D11B7C002B03D1034B63
:109930001878FFF7A3FF08BDA02F002008360020ED
:1099400038B5051E01D0FFF7E7FF114B1878FFF778
:1099500033FE104C2078FFF7F4FE0020FFF736FFAF
:109960000020FFF73AFF0120FFF73EFFA573012417
:109970006C40201CFFF70BFE201CFFF70FFE201C85
:10998000FFF713FE281CFFF7B9FEFFF735FF38BDC0
:10999000BC200020A02F00200423C046C046C046A3
:1099A000C046C046C046C046C046C046C046C04687
:1099B000C046C046C046013B002BEED170470000B8
:1099C00007B5094A01AB187059701078191C0222AA
:1099D000012301F043FC002803D0FFF7DDFF002046
:1099E00000E002480EBDC046B12F00201640000026
:1099F00010B50F4C6378002B17D1FF214000207069
:109A00000320A170FFF7DCFF011E01D009480DE023
:109A10000220FFF7D5FF011EF8D10120FFF7D0FF8C
:109A20000028F3D10123637000E0034810BDC04655
:109A3000B12F00200740000006400000002310B5B1
:109A4000934203D0CC5CC4540133F9E710BD8218B3
:109A5000904202D001700130FAE7704710B50368F8
:109A60001A1E10D0117820290BD93A2901D00132C1
:109A7000F8E7591C1C788A4205D1302C03D10233F7
:109A80000360002001E00120404210BD10B5092311
:109A9000002810D00268002A0DD0117800290AD0C1
:109AA000D48881888C4206D1507801F09BF803233A
:109AB000C007C0170340181C10BDCB7E021C887E57
:109AC0001B021843032A05D14B7D0A7D1B02134359
:109AD0001B0418437047F8B5071CC56A30370123CB
:109AE000041C391C40782A1C01F03EF9012300288F
:109AF00014D1236AA2692071EB1A934201D3002387
:109B00000CE0E678012EFAD9A3696078ED18391CCB
:109B10002A1C012301F028F9013EF3E7181CF8BDC7
:109B200008B5031C02790020824202D0181CFFF7FE
:109B3000D2FF08BDF8B5041CFFF7F2FF051E53D194
:109B40002378032B48D16779012F45D1261C802229
:109B50003036301C291C9200FFF779FF5522234B29
:109B60004121E254224B9218E254221CDE3BFF3B7F
:109B7000313233701370231C6122323385201A7006
:109B800059707223800023541A4823541A4BE1540D
:109B90001A4BE2542369B832FF32A354184A190A07
:109BA000A154184A190CA154174A1B0EA354E36878
:109BB0000132A354154A190AA154154A190CA1548B
:109BC000144A1B0EA354E36960785A1CE262311CEC
:109BD0003B1C01F0C9F86571002160780A1C01F096
:109BE0000FF9431E9841C0B2F8BDC0462E020000D6
:109BF0002F020000150200001602000017020000EC
:109C0000190200001A0200001B0200001D020000E1
:109C10001E0200001F02000070B5C36A041C0E1C67
:109C20000025994210D0FFF77BFF051E0CD1211CA7
:109C300060783031321C012301F05CF8002802D03A
:109C4000012601357642E662281C70BD002310B55E
:109C50000371013BC362041CFFF7DEFF011C0320FC
:109C6000002939D11D4B1E4AE35CA25C1B02134341
:109C70001C4A1BB2013893422ED1231C69331B7836
:109C8000081C1A06231C68331B781B041343221C70
:109C9000663212781343221C673212781202134381
:109CA000114A1B021B0A934216D0231C85331878D5
:109CB000013B1B7800061B041843231C82331B78CE
:109CC0008334184323781B0218430002074B000A11
:109CD000C018431E9841C0B210BDC0462F020000FC
:109CE0002E02000055AAFFFF46415400BABEABFF4A
:109CF0000023F0B5036089B0071C081C161CFFF791
:109D0000ADFE0B23051E00DA8FE1C94B8200D4584B
:109D10000C23002C00D188E13C602378002B0DD06F
:109D2000607800F05FFF0123034007D1002E00D1CF
:109D30007BE1420700D478E10A2376E10023E8B210
:109D40002370607000F058FF0323C20700D56CE158
:109D5000002E01D04307EFD4201C0021FFF776FF2F
:109D6000012828D1231C0020F333FF330022197867
:109D7000914209D0DA7911069A7912040A431979C5
:109D80000A43597909020A43810004AD01304A515E
:109D900010330428EAD1002504AB5E590220002EBE
:109DA00005D0201C311CFFF751FF00280CD00435D2
:109DB000102DF1D135E100260123032800D134E133
:109DC000B04201D00D2330E1231C221C3C331B7810
:109DD0003B3212781B02134380221BB29200934243
:109DE000F0D1231C221C47331B78463212781B0209
:109DF000134311D1231C57331B781A06231C5633E7
:109E00001B781B041343221C543212781343221C68
:109E100055321278120213430093009BA361231C56
:109E200040331A78531EE270012BCBD8231C3D33EC
:109E30001978A1700029C5D04B1E1942C2D1231C2C
:109E400042331F78013B1B783F021F4327813B07AA
:109E5000B8D1231C44331878013B1B780002184307
:109E600010D1231C53331878013B1B7800061B04C8
:109E70001843231C50331B781843231C51331B7881
:109E80001B021843231C251C3F331B783E352D78BD
:109E90001B021D43019595D0009B53430393039AE6
:109EA0003B095B199B18029398428BD3C01A03F0AD
:109EB00025FE002886D05F4B0125984204D95E4DCF
:109EC0008542AD416D420235019B029A0230F31882
:109ED00092196061E6612362A262032D17D1002FFF
:109EE00000D06FE7231C5F331B7880001A06231C09
:109EF0005E331B781B041343221C5C32127813431D
:109F0000221C5D3212781202134363620FE0002FAD
:109F100000D157E7039AD3186362022D01D14000A4
:109F200005E003230122434310405B081818434B0C
:109F3000C018009B400A834200D243E701235B42E2
:109F40002361E36081336371032D61D1231C221CE3
:109F500061331B78603212781B021343012B57D1F7
:109F6000711C201CFFF758FE002851D1344B607142
:109F7000344AE35CA25C1B021343334A1BB2934294
:109F800046D1231C33331B781A06231C32331B782B
:109F90001B041343221C303212781343221C31322B
:109FA000127812021343294A934231D1284BE35CC1
:109FB0001A06284BE35C1B04134385229200A25C23
:109FC0001343254AA25C12021343244A93421FD131
:109FD000234BE35C1A06234BE35C1B0413438622EA
:109FE0009200A25C1343204AA25C12021343236135
:109FF0001E4BE35C1A061E4BE35C1B0413438722D3
:10A000009200A25C13431B4AA25C12021343E3605A
:10A01000074A2570938801339BB29380E380002325
:10A0200003E00123032800D0CCE6181C09B0F0BDE2
:10A03000B42F0020F50F0000F5FF0000FF01000025
:10A040002F0200002E02000055AAFFFF525261416C
:10A050001702000016020000150200007272416132
:10A060001B0200001A020000190200001F0200007B
:10A070001E0200001D020000436902399A1E0023DF
:10A08000914203D28378826A59438B18181C704717
:10A09000F7B50124A14265D94369994262D2037898
:10A0A0000E1C051C022B2DD0032B3FD0A34259D1EF
:10A0B0004F087F18036A790AC918FFF7ADFD002819
:10A0C00002D0012464424DE07B1CFF05590A019334
:10A0D000FF0D2B6AEF193037C918281C3F78FFF79E
:10A0E0009BFD0028EDD1019BD805C00D2D18303502
:10A0F0002B781B021F43264201D03C0932E03F056A
:10A100003C0D2FE0036A090AC918FFF785FD0028F6
:10A11000D7D1FF2376005B001E40AB193036AD1956
:10A1200030336C781B7824021C431BE0036AC90996
:10A13000C918FFF771FD0028C3D1FD30B600FF300C
:10A140000640321C3032AA189478D37824041B06B7
:10A150001C435378AE191B0230361C4333781C4322
:10A1600024012409201CFEBDF8B5051CE980846883
:10A170000E1C012C01D1022038E003685A69944278
:10A18000F9D2002C0BD11A78032A02D15A6A002A7C
:10A1900004D11A899642EED2586A17E0141C211C89
:10A1A0009F783F01BE420DD32868FFF771FF011C65
:10A1B000431C1AD00128DED92B685B699842DAD299
:10A1C000F61BEFE728680C1CFFF756FFEC60002831
:10A1D000D1D00F2133093140181849012B68303193
:10A1E000591828616961002000E00120F8BDF7B529
:10A1F000041C0E1C151C022001297DD9636999429B
:10A200007AD22778874245D0032F57D0012F73D1B8
:10A210004B085B18590A0093236A201CC918FFF7E2
:10A22000FBFC002868D1009B3E4001330193009B5A
:10A23000EAB2DB05DB0DE318002E08D01A1C303221
:10A2400011780F220A40E9B209010A43D2B2303331
:10A250001A7001232371019B201C590A236AC91813
:10A26000FFF7DAFC002847D1019BDB05DB0DE21884
:10A27000002E02D02D09EDB208E0131C30331978FE
:10A280000F232D0A99432B4019430D1C131C303307
:10A290001D702FE0236A090AC918201CFFF7BCFCB7
:10A2A000002829D1FF2376005B001E40A31930331C
:10A2B00030361D70A6192D0A75701BE0236AC90976
:10A2C000C918201CFFF7A8FC002815D1FE23B600F2
:10A2D0005B001E40331C3033E318DA78A6191209EC
:10A2E000120715432A0A303635705A702A0C2D0E83
:10A2F0009A70DD7001232371FEBD0000F8B5051CC6
:10A300000E1E06D1C768002F13D043699F4211D398
:10A310000FE0FFF7BDFE0124A04242D9431C02D149
:10A32000012464423DE06B69041C371C984201D251
:10A3300037E001273C1C6B6901349C4204D3012F98
:10A3400001D800242DE00224281C211CFFF7A0FEC8
:10A35000002808D0431C01D0012801D1041C20E0B2
:10A36000BC42E8D1EDE7281C211C0F4AFFF73FFF54
:10A37000002813D1002E0AD12B69EC605A1C10D092
:10A380000122013B2B616B7913436B7109E0281C9F
:10A39000311C221CFFF72BFF0028EDD00128BFD075
:10A3A0000124201CF8BDC046FFFFFF0FF7B5C6888B
:10A3B0000136B3B2002B01D104206AE00369002BFF
:10A3C000FAD00F2232400F1C041C0192002A58D1EF
:10A3D000C168013303610068002903D103899E42EB
:10A3E000EAD24EE082783309013A1A4249D1FFF7A6
:10A3F0004FFE051E012D01D802204AE0431C01D169
:10A40000012046E0206843699D4234D3002FD3D019
:10A41000E168FFF773FF051C0720002D39D0012DDF
:10A42000EAD06B1CECD02068FFF77AFB0090031E8B
:10A43000E6D180222068191C30309200FFF707FB1C
:10A440002768291C381CFFF717FEF862009F236855
:10A450009A7897420CD201221A712068FFF760FBAC
:10A460000028CDD122680137D36A0133D362EEE7E9
:10A47000DA6AD71BDF62E5602068291CFFF7FCFD64
:10A4800020610020019B22685B013033D318E680F5
:10A490006361FEBDF0B50B7885B0041C0D1C2F2B3D
:10A4A00001D05C2B00D101350026A6602B781F2B34
:10A4B00006D8201C311CFFF757FE6661D5E0013538
:10A4C0002B782F2BFBD05C2BF9D0A66920210B22F7
:10A4D000301CFFF7BCFA002108230A1C00910193ED
:10A4E000009B01330293009BEB5C202B43D92F2B65
:10A4F00041D05C2B3FD02E2B00D19BE001988142B4
:10A5000000D395E058B2002801DA032002437F20EF
:10A5100084469C4460466F46F873F87B1E2807D932
:10A52000202084469C446046F873F87B1C2819D888
:10A5300000980230844602982F5C381C40383E2830
:10A5400003D94038C0B27C2872D8019801388142C2
:10A550006ED273546346481C375402310293029BF7
:10A560000093BDE700274248C05D00286BD001374B
:10A570009842F8D15CE0029820272D1800209F42D5
:10A5800040418300002953D03178E52901D1E039D9
:10A5900031700199082901D19200D2B203211140F2
:10A5A000012902D10F310B43DBB20C210A40042AEE
:10A5B00002D104321343DBB2F372201C0021FFF7F7
:10A5C000D3FD00281CD120682169FFF725FB002856
:10A5D00016D161690B78002B11D00823CA7A1A4072
:10A5E00008D1A6698B5CB05C0132181A02D10B2A23
:10A5F000F8D105E0201C0021FFF7D8FEE1E7042098
:10A60000A369DB7A002805D004282ED103422CD17F
:10A6100001302AE05B0728D46169CB7ADB0605D5D7
:10A6200023681878FFF749FAA06049E705201CE085
:10A6300006201AE0019B082BFAD10B239200019906
:10A64000D2B201938BE71F1C413F192F02D802277A
:10A650003A4307E01F1C613F192F03D80127203B15
:10A660003A43DBB27354013179E705B0F0BDC0461F
:10A6700050F4010038B50021051CFFF775FD041EDC
:10A6800010D128682969FFF7C7FA041E0AD16B693F
:10A690001B78E52B0AD0002B08D0281C0121FFF7DE
:10A6A00085FEECE7042C14D1033412E028682969F4
:10A6B000FFF7B2FA041E0CD16869211C2022FFF7B3
:10A6C000C6F90B226869A969FFF7B8F901222B685E
:10A6D0001A71201C38BD70B5041C0D1E012D01D847
:10A6E000022024E043699942FAD263699D4205D26F
:10A6F000201C291CFFF7CCFC061E01D1002016E00F
:10A700000128EDD0431C11D0201C291C0022FFF78A
:10A710006EFD00280BD123695A1C05D0012201339C
:10A720002361637913436371351CDEE7012070BD3B
:10A730001FB5019003A8141C00910391FFF78EF937
:10A740000B22002817DB0D4B8000C258002A01D0D5
:10A7500000211170019A002A01D000211170019985
:10A7600019500A1E07D00022012C04D101A8694605
:10A77000FFF7BEFA021C101C04B010BDB42F00205D
:10A78000F0B58FB0051C03910920002D00D18CE09D
:10A79000161C00231E222B60324007A803A9FFF7D6
:10A7A000A7FA002800D080E004AB07A803990D9316
:10A7B000FFF770FE0C9C002802D1002C00D106305F
:10A7C0001F271C2337401E4242D000280AD00428ED
:10A7D00002D107A8FFF74EFF08230C9C1F43002857
:10A7E00007D062E01123E27A1A425DD10820730794
:10A7F0005BD43B0736D54A2300262374043B63749D
:10A80000079BA673E673E67226776677A677E677E8
:10A810001878211C0193FFF750F90123019AA676BD
:10A82000E6762675667502901371B0421AD0101C38
:10A830000299D66AFFF74FFF002836D1029B07988E
:10A84000013BC360311CFFF7E7F900280AD02CE078
:10A8500000282AD1E37A0420DA0626D4B20701D5EB
:10A86000DB0721D43B0701D520231F43079E211C72
:10A87000F36AAF710027EB612C62EF713078FFF75C
:10A880001CF92861E37F381C1A06A37F1B041343BD
:10A89000227F1343627FAF6012021343EB60AF610C
:10A8A0002E60F388AB8000E007200FB0F0BDF0B55C
:10A8B0001F1C002385B03B60041C0191151CFFF791
:10A8C000E5F8002800D0B1E0E379181E00D0ADE033
:10A8D000A2790720920700D4A8E0A268A9189142A3
:10A8E0005B415B421D40002D16D0A268D30570D19C
:10A8F0002068530A817801390B40DBB20293002BA8
:10A900001FD1002A03D1216900290CD100E061691F
:10A91000FFF7F4FC011E06D1A368E268934200D859
:10A920007FE0E3607DE0012901D1022002E04B1CC1
:10A9300002D10120E07179E023696161002B00D12F
:10A9400021612068A269C36A934203D1FFF7E8F846
:10A950000028EED126686169301CFFF78DFB0028C6
:10A96000E3D0029BC31803936B0A009323D0009A91
:10A970000299B37852189A4201D95B1A0093707801
:10A980000199039A009B00F0EFF9061ED1D12068CF
:10A99000039AC36A991A009B994209D28022019BAB
:10A9A0004902591830309200FFF748F823681E71A9
:10A9B000009B5E022AE0A368E268934207D3301C42
:10A9C000FFF7AEF80028B4D12368039ADA62039B3C
:10A9D000A3618022A3689200DB05DB0DD31A2E1E33
:10A9E0009E4200D91E1C2068A169FFF715F90028B6
:10A9F0009FD1A368321CD805C00D236830301818C9
:10AA00000199FFF71BF8012322681371019BAD1B0D
:10AA10009B190193A3689B19A3603B689B193B603A
:10AA200061E720220020A3791343A37105B0F0BD94
:10AA300038B5041CFFF72AF8002830D12025A37967
:10AA40002B422CD02068E169FFF7E6F8002826D1D8
:10AA5000236ADA7A2A43DA72227B1A77627B5A7780
:10AA6000E268120C9A77E268120EDA77226998751A
:10AA70009A76110A120C1A75120A5A754A221A7617
:10AA8000043AD976D8755A769874D874A37922681E
:10AA9000AB43A371012313712068FFF74BF838BD56
:10AAA00010B5041CFFF7C4FF002805D1201CFEF7D9
:10AAB000EDFF002800D1206010BDF7B5041C0D1C6F
:10AAC000FEF7E4FF002877D1E079002874D1E3682D
:10AAD0009D4203D9A279920700D41D1C0022A368CD
:10AAE000A260954201D1002056E02768BE78760228
:10AAF000002B14D0013B311C681E009302F0FEFFB6
:10AB0000311C0190009802F0F9FF019B834206D3AB
:10AB1000009A73421A40A260AD1A616911E021697E
:10AB200000290DD1381CFFF7E9FB011E012901D1D5
:10AB3000022002E0431C02D10120E0713CE02061D0
:10AB400061610029CFD0B5421AD9A37920689B074B
:10AB500004D5FFF7D3FB011E03D110E0FFF798FAED
:10AB6000011C4B1CE8D00129E2D923685B6999429A
:10AB7000DED2A36861619B19A360AD1BE3E7351CBE
:10AB8000A3685B19A360EB05ADD02068FFF774FAEA
:10AB90000028CDD06D0A4019A368DA0503D0A26958
:10ABA000904200D0A061E2680020934204D92022A4
:10ABB000E360A3791343A371FEBDFA239B00C04653
:10ABC000C046C046C046C046C046C046C046C04655
:10ABD000C046C046C046C046C046013B002BEED131
:10ABE000704700000123002801D1024B1B78181C7C
:10ABF0007047C046BD20002073B50324002872D1E1
:10AC00000A3002F011FEFCF79BFE073401AD013C57
:10AC1000281C0121E4B2FCF7BDFE002CF6D1201C5B
:10AC2000211CFCF759FF061E012E01D0002446E02E
:10AC3000D52108204900FCF74FFF012818D1281C16
:10AC40000421FCF7A7FEAB78012BEFD1EB78AA2B00
:10AC5000ECD1FA24A4008021A920C905FCF73CFF0F
:10AC6000011E1ED0013CFFF7A8FF002CF3D1DDE749
:10AC7000A920211CFCF730FF012802D9351C341C07
:10AC800001E0A9250224FA26B600281C0021FCF7C1
:10AC900023FF00281DD0013EFFF78FFF002EF4D1C7
:10ACA000C4E73A20FCF718FF0028BFD1281C042174
:10ACB000FCF770FE2B780C245B0600D404240B4BAD
:10ACC0001C70604244410A4BE4B21C70FCF794FED5
:10ACD00009E0802110208900FCF7FEFE4342584124
:10ACE00040420440EBE7201C76BDC046BA2F00204E
:10ACF000BD20002070B51D1C01230E1C191C00284E
:10AD000001D1174909780320194228D1154B1B7826
:10AD10001B0700D452020124AC42A4416442113406
:10AD2000201C111CFCF7D8FE002812D18021301CF9
:10AD30008900FCF787FE002805D08023013D9B0099
:10AD4000F618002DF2D1122C03D10C200021FCF7B3
:10AD5000C3FEFCF751FE2B1C5D1EAB41D8B270BD8B
:10AD6000BD200020BA2F002070B51C1C0123161C2A
:10AD70000D1C1A1C002801D11F4A127803201A4208
:10AD800038D11E4B1B781A0700D47602012C0CD147
:10AD90001820311CFCF7A0FE002826D1281CFE211B
:10ADA000FCF774FE444244411FE00622134203D0E4
:10ADB0009720211CFCF790FE1920311CFCF78CFE1B
:10ADC000002812D1281CFC21FCF760FE002805D0C9
:10ADD0008023013C9B00ED18002CF3D10020FD21C5
:10ADE000FCF754FE002800D10124601E8441FCF7CA
:10ADF00003FEE0B270BDC046BD200020BA2F002087
:10AE00000123F0B51C1C85B0002801D12B48047823
:10AE10001C400326002C4ED1151C01290CD0002902
:10AE200004D0B14243D18023136041E0FCF7F2FD2E
:10AE300044424441E4B23BE0211C0920FCF74CFEB3
:10AE4000041E01D0012433E068461021FCF7FAFD0E
:10AE50000028F7D06B466A461878517A8009DB796A
:10AE6000127A012808D13E3003401E041202013636
:10AE70008A18B118890218E09B009209D2186B4613
:10AE80009B79314033409B02D3186A4657790F2291
:10AE900017406A46927A4E00D0093A180232911948
:10AEA000C9B2093901338B40191C296000E0042420
:10AEB000FCF7A2FD261C301C05B0F0BDBD20002013
:10AEC00000B5A1B068460A4903F016FB69460020A8
:10AED000FEF75AF90122074B03211A700022064B94
:10AEE0001D201A708032FDF799FA21B000BDC046CE
:10AEF00093F40100BB2F00202033002000B5A1B047
:10AF000068460A4903F0F8FA69460020FEF73CF962
:10AF10000122074B03215A700022064B1D201A7094
:10AF20008032FDF77BFA21B000BDC046ABF40100D2
:10AF3000BB2F00202033002000200122024B18707C
:10AF4000024B1A707047C04620330020F8320020B0
:10AF500010B5041CA0B0002802D0FFF7B1FF0CE030
:10AF60000749684603F0C8FA201C6946FEF70CF949
:10AF7000044B1D201C70FDF71DFA20B010BDC0460B
:10AF8000BFF40100BB2F002010B5041CA0B00028A6
:10AF900002D0FFF7B3FF0CE00749684603F0ACFAB4
:10AFA000201C6946FEF7F0F8044B1D205C70FDF78D
:10AFB00001FA20B010BDC046D8F40100BB2F00201C
:10AFC00070B580252D01A0B0061C0C1C284202D0B3
:10AFD0000020FFF7BDFF2C4201D0FFF771FF802555
:10AFE000AD032E4202D00020FFF7CEFF2C4201D04D
:10AFF000FFF784FF630610D50949684603F07CFA21
:10B0000000206946FEF7C0F86846FEF7A1F900285F
:10B0100003D04C21034AFBF7CDFB20B070BDC046E6
:10B02000EDF4010006F50100012070B5A026A2256F
:10B03000011CF605ED00234C72592378D20AC2B0E8
:10B040009143994202D05840FFF782FF0120011C32
:10B0500072596378520D9143994202D05840FFF7DC
:10B0600093FF194B1D78002D29D1184922A803F010
:10B0700043FA281C22A901ADFEF786F8281CFEF72A
:10B080005BF9002817D16A78114902A803F012FA77
:10B09000104902A8FBF78AFD21786A78012300296C
:10B0A00000D1637822A80C4903F004FA22A90020F9
:10B0B000FEF76AF803E06921084AFBF77BFB42B020
:10B0C00070BDC046BB2F0020C432002038F50100FF
:10B0D00053F5010056F5010062F5010006F5010087
:10B0E000002809D08021A123A022DB00D205C905B8
:10B0F000D1500122014B1A707047C046F83200202F
:10B1000082B00190C046C046C046C046C046C04658
:10B11000C046C046C046C046C046C046C046C046FF
:10B12000019B013B0193002BECD102B07047000062
:10B13000A023F0B5284FDB00FA5885B00092A02478
:10B140000022264EFA50E405A359254A0193E02334
:10B15000A251DB00E15801250291E2500222F93BA5
:10B16000FF3BE5500420E250FFF7CAFFA223DB00BB
:10B17000E2580397371C2A4206D0E3581324EB40C9
:10B180002B4202D0012018E01324013C002C13D0E4
:10B19000A0250226134BED05EE500420FFF7B0FF6B
:10B1A000A123DB00EE500420FFF7AAFFA223DB005F
:10B1B000EB58DB07E9D5E5E7201CA023019ADB0566
:10B1C000DA51E0220299D2009950A023039A009903
:10B1D000DB00D15005B0F0BD004000400407000086
:10B1E0000D0600000C05000038B5A023124A1349D3
:10B1F000DB055A5004395A50114B0022191CFC31FE
:10B20000CA600A62A12101200E4CC90058501A518F
:10B21000CC240D4A64049C50A2240C4A0C4DE4003A
:10B2200015510C4D0C4C15515050A0220521D20047
:10B230009950FFF77DFF38BD0C06000004070000A1
:10B24000004000400C0500002405000000F0014013
:10B25000384100401C40004014050000F0B585B0A6
:10B26000071C0E1C01920293002A01D1002099E0D4
:10B27000FFF75EFF0028F9D0B1234B4C7A08DB00C2
:10B28000E2500122494D17424BD0019B484F934257
:10B2900001D1484B00E0484B484ABB500123484A83
:10B2A000BB500022EA602360464B0293EB68002B00
:10B2B00008D13E4B9B6A002B04D1029B013B0293B9
:10B2C000002BF3D10023EB60029B002B41D0374BC6
:10B2D0009B6A002B3DD1731C0393A323324ADB00EE
:10B2E000D3583370019B013BDBB20193012B03D197
:10B2F000304B324ABB5002E0019B002B06D0142099
:10B30000FFF7FEFE01232362039ECFE7AB68002B0D
:10B31000FCD00022254B01209A60A123DB00F850CD
:10B3200040E03078284B711CE050A260254A286A22
:10B33000002807D11D48806A002803D1013A002A5D
:10B34000F5D106E0002A04D0AF6A1748174E002F47
:10B3500010D00026AE62A0251C4FED0066510520DE
:10B36000E651FFF7CDFE0123E35104336351FFF7AC
:10B370003BFF7BE73762019F013FFFB20197002F40
:10B3800003D00E780131C650D1E7029B002B01D1CA
:10B39000012007E0019BB36001234361AB68002BF0
:10B3A000FCD0F5E705B0F0BD00400040FC40004097
:10B3B00000F00140144000401C4000401405000013
:10B3C00004050000204E00001C050000FC0F0000DA
:10B3D000A0DF7047A2DF7047F0B591B001900F1C5D
:10B3E000151C1C1C002904D1081C1B4A6D21FBF7ED
:10B3F000E1F9002D04D1281C6E21174AFBF7DAF978
:10B4000009AE301C00211C2202F09CFF012202A97F
:10B410008A710A1C694602238988337091802278D8
:10B4200002A90A70627804AC4A708B70201C00215B
:10B43000142202F087FF03AB049302AB6360074B57
:10B44000311C1888221C169B2581A5812761FFF7D6
:10B45000C1FF11B0F0BDC0468CF50100BE2F002029
:10B4600030B5041C01205A4D87B05A4B03A92A1C41
:10B4700088700B80FFF7ACFF002800D0A5E0228881
:10B48000002A03D12289002A17D00AE0AB1C0093BE
:10B49000231C514861683C33FFF79EFF0028F1D020
:10B4A00093E02B1C0A330093231C4C48E1683C3387
:10B4B000FFF792FF002800D087E0228A002A0AD0F6
:10B4C0002B1C12330093231C454861693C33FFF762
:10B4D00083FF002879D1228B002A0AD02B1C1A3333
:10B4E0000093231C3F48E1693C33FFF775FF0028B8
:10B4F0006BD1228C002A0AD02B1C22330093231CF0
:10B500003948616A3C33FFF767FF00285DD1228D1F
:10B51000002A0AD02B1C2A330093231C3348E16AEB
:10B520003C33FFF759FF00284FD1236B002B1CD071
:10B530001A7804A90A705A782D484A709A788A7045
:10B540001A68120ECA701A790A719B681A0A4B712E
:10B550001B0CCB712B1C32338A710093231C0822E5
:10B560003C33FFF739FF00282FD1636B002B03D149
:10B57000A06B00280DD128E0291C3A311A790091DE
:10B580001968231C1B483C33FFF726FF0028EFD027
:10B590001BE0037804A90B70438842354B701B0AEB
:10B5A0008B7083880722CB701B0A0B71C3881248EB
:10B5B0004B711B0A8B71231C00953C33FFF70CFF6A
:10B5C000031C0020834200D0181C07B030BDC046C9
:10B5D000BE2F00200A180000292A0000242A00009B
:10B5E000252A0000272A0000262A0000282A000019
:10B5F000232A00002A2A0000502A000038B5041C23
:10B60000081C0D1C02F080FF6560208038BD26DF1D
:10B61000704751DF704710DF704761DF704708B532
:10B62000081C111CFBF732F908BD0000F0B5234DD2
:10B6300085B02B78002B3ED06E68AC6873425E41BB
:10B6400063425C41F6B2E4B2002E32D103A8FFF7A8
:10B65000E0FF05280AD0002804D06921184AFBF72A
:10B66000A9F804E003986B68984700E00126002CD5
:10B670001CD1AB8903A90B802B690124181C0193F1
:10B68000FFF7CBFF071E052F0BD0002805D0802128
:10B690000B4AFBF78FF8002403E00198AB6898474A
:10B6A0003C1C002ED0D0002CCED004E0002E02D1C5
:10B6B000CAE7002CDDD005B0F0BDC0460830002040
:10B6C000D1F5010038B5051C0720002910D08C07E2
:10B6D0000ED1084C281C21610749A2816361FFF744
:10B6E0009AFF002804D1012316302370FFF78FFF43
:10B6F00038BDC046083000201FB601000E230028C8
:10B7000002D0024B98600023181C704708300020BC
:10B710000E23002802D0024B58600023181C7047EB
:10B720000830002008B5084B5B69002B08D098470B
:10B73000002807D09921054A4900FBF73BF801E0B2
:10B74000FFF774FF08BDC04608300020D1F50100A6
:10B7500072DF704779DF70477DDF704765DF7047C4
:10B76000F0B50024061C251C87B00C9F00933B7885
:10B7700003910292019333889D423ADA7368A900DB
:10B780005918042205A802F0D4FD04AB05A8D91C61
:10B790000022FFF7E3FF002835D104ABDB78029AE3
:10B7A000934222D16242624102993B785200591879
:10B7B0008A181F2A1BDC002C07D169469A1C3A7094
:10B7C0000133009A097BDBB2D15404ABDC1C3A781C
:10B7D000009B05A89A18211CFFF7C0FF002812D172
:10B7E000237801243A78D3183B700135C3E70C2045
:10B7F00009E00020844206D03B78019A013B9B1A65
:10B800000199009A535407B0F0BDF7B5089E171C74
:10B8100000960222051C1C1CFFF7A2FF002806D17F
:10B820000096281C391C1022231CFFF799FFFEBD2F
:10B830000023F0B51370037889B0061C0D1C141C8E
:10B84000002B03D1B378002B4BD029E043780C2098
:10B850001D2B00DD61E10E2704ABFF181D23881CA2
:10B86000391C3B80FFF778FF002800D055E1337882
:10B87000022B03D13B8809221D2B08D97378002B9A
:10B8800003D09BB208221D2B01D908223B88DBB2D2
:10B89000591C29706A70227802329B182370D1E7F4
:10B8A00023780C201B2B00DD37E10E2704ABFF189B
:10B8B000381CFFF74FFF002800D02EE123785A1CD8
:10B8C00022700322EA5423785A1C22701922EA5467
:10B8D00023783A88EB181A70120A5A7023780233C8
:10B8E0002370B388002B1FD0B2680720002A00D134
:10B8F00013E122780530911CCB181F2B00DD0CE1E1
:10B90000531C2370B3880133AB5423785A1C227024
:10B910000122EA542078B2882818B16802F009FDA3
:10B92000B2882378D3182370F368002B12D01A78CA
:10B9300023780C201C2B00DDEFE0591C2170022124
:10B94000E9542378591C21700A21E9542378591CA1
:10B950002170EA54338A002B03D1338B002B16D08D
:10B960000AE0301C00941030022106222B1CFFF745
:10B970004CFF0028F1D0D0E0301C00941830032197
:10B9800007222B1CFFF741FF002800D0C5E0338CB5
:10B99000002B0AD0301C00942030142115222B1CBF
:10B9A000FFF733FF002800D0B7E0B36A002B49D07F
:10B9B00022780C20049206321F2A00D9ADE01988A3
:10B9C0000538052900D8A8E0554A564F8A1892B282
:10B9D000BA4200D8A1E05A880392052A00D89CE018
:10B9E0004F4FBC469444674602AA97819789BC464C
:10B9F0004C4FBC4500D890E04B4FB94205D0039A5C
:10BA0000BA4202D0914200D987E0049A04990132E7
:10BA1000227005226A542278511C21701221A954E7
:10BA200022781988AA181170090A517022780232F6
:10BA3000D2B222705988AB181970090A597023784C
:10BA400002332370F76A002F29D03A792178931CAA
:10BA5000881CDBB2C3180C201F2B5EDC4B1C03328E
:10BA600023706A5423785A1C2270FF22EA542378E8
:10BA70003A88EB181A70120A5A7023780233DBB234
:10BA80002370BA88002A0AD0B9680538002944D042
:10BA9000E81802F04EFCBA882378D3182370331CC0
:10BAA000343305931B78002B01D1002035E0336B34
:10BAB000002B31D000230493059B049A1B789342FA
:10BAC000F3D90C27049B22785F43336B511CDF1999
:10BAD0003B7921700333AB5423785A1C2270162211
